{
  "_format": "hh-sol-artifact-1",
  "contractName": "NightmareOnEtherStreet",
  "sourceName": "contracts/NightmareOnEtherStreet.sol",
  "abi": [
    {
      "inputs": [],
      "stateMutability": "nonpayable",
      "type": "constructor"
    },
    {
      "inputs": [],
      "name": "ApprovalCallerNotOwnerNorApproved",
      "type": "error"
    },
    {
      "inputs": [],
      "name": "ApprovalQueryForNonexistentToken",
      "type": "error"
    },
    {
      "inputs": [],
      "name": "BalanceQueryForZeroAddress",
      "type": "error"
    },
    {
      "inputs": [],
      "name": "MintERC2309QuantityExceedsLimit",
      "type": "error"
    },
    {
      "inputs": [],
      "name": "MintToZeroAddress",
      "type": "error"
    },
    {
      "inputs": [],
      "name": "MintZeroQuantity",
      "type": "error"
    },
    {
      "inputs": [],
      "name": "MintedOut",
      "type": "error"
    },
    {
      "inputs": [],
      "name": "MintingClosed",
      "type": "error"
    },
    {
      "inputs": [],
      "name": "OwnerQueryForNonexistentToken",
      "type": "error"
    },
    {
      "inputs": [],
      "name": "OwnershipNotInitializedForExtraData",
      "type": "error"
    },
    {
      "inputs": [],
      "name": "TransferCallerNotOwnerNorApproved",
      "type": "error"
    },
    {
      "inputs": [],
      "name": "TransferFromIncorrectOwner",
      "type": "error"
    },
    {
      "inputs": [],
      "name": "TransferToNonERC721ReceiverImplementer",
      "type": "error"
    },
    {
      "inputs": [],
      "name": "TransferToZeroAddress",
      "type": "error"
    },
    {
      "inputs": [],
      "name": "URIQueryForNonexistentToken",
      "type": "error"
    },
    {
      "anonymous": false,
      "inputs": [
        {
          "indexed": true,
          "internalType": "address",
          "name": "owner",
          "type": "address"
        },
        {
          "indexed": true,
          "internalType": "address",
          "name": "approved",
          "type": "address"
        },
        {
          "indexed": true,
          "internalType": "uint256",
          "name": "tokenId",
          "type": "uint256"
        }
      ],
      "name": "Approval",
      "type": "event"
    },
    {
      "anonymous": false,
      "inputs": [
        {
          "indexed": true,
          "internalType": "address",
          "name": "owner",
          "type": "address"
        },
        {
          "indexed": true,
          "internalType": "address",
          "name": "operator",
          "type": "address"
        },
        {
          "indexed": false,
          "internalType": "bool",
          "name": "approved",
          "type": "bool"
        }
      ],
      "name": "ApprovalForAll",
      "type": "event"
    },
    {
      "anonymous": false,
      "inputs": [
        {
          "indexed": true,
          "internalType": "uint256",
          "name": "fromTokenId",
          "type": "uint256"
        },
        {
          "indexed": false,
          "internalType": "uint256",
          "name": "toTokenId",
          "type": "uint256"
        },
        {
          "indexed": true,
          "internalType": "address",
          "name": "from",
          "type": "address"
        },
        {
          "indexed": true,
          "internalType": "address",
          "name": "to",
          "type": "address"
        }
      ],
      "name": "ConsecutiveTransfer",
      "type": "event"
    },
    {
      "anonymous": false,
      "inputs": [
        {
          "indexed": true,
          "internalType": "address",
          "name": "previousOwner",
          "type": "address"
        },
        {
          "indexed": true,
          "internalType": "address",
          "name": "newOwner",
          "type": "address"
        }
      ],
      "name": "OwnershipTransferred",
      "type": "event"
    },
    {
      "anonymous": false,
      "inputs": [
        {
          "indexed": false,
          "internalType": "bool",
          "name": "",
          "type": "bool"
        }
      ],
      "name": "StatusChange",
      "type": "event"
    },
    {
      "anonymous": false,
      "inputs": [
        {
          "indexed": true,
          "internalType": "address",
          "name": "from",
          "type": "address"
        },
        {
          "indexed": true,
          "internalType": "address",
          "name": "to",
          "type": "address"
        },
        {
          "indexed": true,
          "internalType": "uint256",
          "name": "tokenId",
          "type": "uint256"
        }
      ],
      "name": "Transfer",
      "type": "event"
    },
    {
      "inputs": [
        {
          "internalType": "address",
          "name": "to",
          "type": "address"
        },
        {
          "internalType": "uint256",
          "name": "tokenId",
          "type": "uint256"
        }
      ],
      "name": "approve",
      "outputs": [],
      "stateMutability": "payable",
      "type": "function"
    },
    {
      "inputs": [
        {
          "internalType": "address",
          "name": "owner",
          "type": "address"
        }
      ],
      "name": "balanceOf",
      "outputs": [
        {
          "internalType": "uint256",
          "name": "",
          "type": "uint256"
        }
      ],
      "stateMutability": "view",
      "type": "function"
    },
    {
      "inputs": [],
      "name": "baseURI",
      "outputs": [
        {
          "internalType": "string",
          "name": "",
          "type": "string"
        }
      ],
      "stateMutability": "view",
      "type": "function"
    },
    {
      "inputs": [
        {
          "internalType": "uint256",
          "name": "quantity",
          "type": "uint256"
        }
      ],
      "name": "claim",
      "outputs": [],
      "stateMutability": "payable",
      "type": "function"
    },
    {
      "inputs": [
        {
          "internalType": "uint256",
          "name": "tokenId",
          "type": "uint256"
        }
      ],
      "name": "getApproved",
      "outputs": [
        {
          "internalType": "address",
          "name": "",
          "type": "address"
        }
      ],
      "stateMutability": "view",
      "type": "function"
    },
    {
      "inputs": [
        {
          "internalType": "address",
          "name": "owner",
          "type": "address"
        },
        {
          "internalType": "address",
          "name": "operator",
          "type": "address"
        }
      ],
      "name": "isApprovedForAll",
      "outputs": [
        {
          "internalType": "bool",
          "name": "",
          "type": "bool"
        }
      ],
      "stateMutability": "view",
      "type": "function"
    },
    {
      "inputs": [],
      "name": "maxSupply",
      "outputs": [
        {
          "internalType": "uint256",
          "name": "",
          "type": "uint256"
        }
      ],
      "stateMutability": "view",
      "type": "function"
    },
    {
      "inputs": [],
      "name": "name",
      "outputs": [
        {
          "internalType": "string",
          "name": "",
          "type": "string"
        }
      ],
      "stateMutability": "view",
      "type": "function"
    },
    {
      "inputs": [],
      "name": "owner",
      "outputs": [
        {
          "internalType": "address",
          "name": "",
          "type": "address"
        }
      ],
      "stateMutability": "view",
      "type": "function"
    },
    {
      "inputs": [
        {
          "internalType": "uint256",
          "name": "tokenId",
          "type": "uint256"
        }
      ],
      "name": "ownerOf",
      "outputs": [
        {
          "internalType": "address",
          "name": "",
          "type": "address"
        }
      ],
      "stateMutability": "view",
      "type": "function"
    },
    {
      "inputs": [],
      "name": "price",
      "outputs": [
        {
          "internalType": "uint256",
          "name": "",
          "type": "uint256"
        }
      ],
      "stateMutability": "view",
      "type": "function"
    },
    {
      "inputs": [],
      "name": "renounceOwnership",
      "outputs": [],
      "stateMutability": "nonpayable",
      "type": "function"
    },
    {
      "inputs": [
        {
          "internalType": "address",
          "name": "from",
          "type": "address"
        },
        {
          "internalType": "address",
          "name": "to",
          "type": "address"
        },
        {
          "internalType": "uint256",
          "name": "tokenId",
          "type": "uint256"
        }
      ],
      "name": "safeTransferFrom",
      "outputs": [],
      "stateMutability": "payable",
      "type": "function"
    },
    {
      "inputs": [
        {
          "internalType": "address",
          "name": "from",
          "type": "address"
        },
        {
          "internalType": "address",
          "name": "to",
          "type": "address"
        },
        {
          "internalType": "uint256",
          "name": "tokenId",
          "type": "uint256"
        },
        {
          "internalType": "bytes",
          "name": "_data",
          "type": "bytes"
        }
      ],
      "name": "safeTransferFrom",
      "outputs": [],
      "stateMutability": "payable",
      "type": "function"
    },
    {
      "inputs": [
        {
          "internalType": "address",
          "name": "operator",
          "type": "address"
        },
        {
          "internalType": "bool",
          "name": "approved",
          "type": "bool"
        }
      ],
      "name": "setApprovalForAll",
      "outputs": [],
      "stateMutability": "nonpayable",
      "type": "function"
    },
    {
      "inputs": [
        {
          "internalType": "bytes4",
          "name": "interfaceId",
          "type": "bytes4"
        }
      ],
      "name": "supportsInterface",
      "outputs": [
        {
          "internalType": "bool",
          "name": "",
          "type": "bool"
        }
      ],
      "stateMutability": "view",
      "type": "function"
    },
    {
      "inputs": [],
      "name": "symbol",
      "outputs": [
        {
          "internalType": "string",
          "name": "",
          "type": "string"
        }
      ],
      "stateMutability": "view",
      "type": "function"
    },
    {
      "inputs": [
        {
          "internalType": "uint256",
          "name": "tokenId",
          "type": "uint256"
        }
      ],
      "name": "tokenURI",
      "outputs": [
        {
          "internalType": "string",
          "name": "",
          "type": "string"
        }
      ],
      "stateMutability": "view",
      "type": "function"
    },
    {
      "inputs": [],
      "name": "totalSupply",
      "outputs": [
        {
          "internalType": "uint256",
          "name": "",
          "type": "uint256"
        }
      ],
      "stateMutability": "view",
      "type": "function"
    },
    {
      "inputs": [
        {
          "internalType": "address",
          "name": "from",
          "type": "address"
        },
        {
          "internalType": "address",
          "name": "to",
          "type": "address"
        },
        {
          "internalType": "uint256",
          "name": "tokenId",
          "type": "uint256"
        }
      ],
      "name": "transferFrom",
      "outputs": [],
      "stateMutability": "payable",
      "type": "function"
    },
    {
      "inputs": [
        {
          "internalType": "address",
          "name": "newOwner",
          "type": "address"
        }
      ],
      "name": "transferOwnership",
      "outputs": [],
      "stateMutability": "nonpayable",
      "type": "function"
    },
    {
      "inputs": [],
      "name": "updateHaunting",
      "outputs": [],
      "stateMutability": "nonpayable",
      "type": "function"
    },
    {
      "inputs": [
        {
          "internalType": "uint256",
          "name": "newPrice",
          "type": "uint256"
        }
      ],
      "name": "updatePrice",
      "outputs": [],
      "stateMutability": "nonpayable",
      "type": "function"
    },
    {
      "inputs": [],
      "name": "witchingHour",
      "outputs": [
        {
          "internalType": "bool",
          "name": "",
          "type": "bool"
        }
      ],
      "stateMutability": "view",
      "type": "function"
    }
  ],
  "bytecode": "0x60a0604052611a0d608090815250661550f7dca700006009553480156200002557600080fd5b506040518060400160405280601981526020017f4e696768746d617265204f6e20457468657220537472656574000000000000008152506040518060400160405280600481526020017f4e4f4553000000000000000000000000000000000000000000000000000000008152508160029081620000a391906200047d565b508060039081620000b591906200047d565b50620000c66200013060201b60201c565b6000819055505050620000ee620000e26200013560201b60201c565b6200013d60201b60201c565b6000600860146101000a81548160ff02191690831515021790555060405180602001604052806000815250600a90816200012991906200047d565b5062000564565b600090565b600033905090565b6000600860009054906101000a900473ffffffffffffffffffffffffffffffffffffffff16905081600860006101000a81548173ffffffffffffffffffffffffffffffffffffffff021916908373ffffffffffffffffffffffffffffffffffffffff1602179055508173ffffffffffffffffffffffffffffffffffffffff168173ffffffffffffffffffffffffffffffffffffffff167f8be0079c531659141344cd1fd0a4f28419497f9722a3daafe3b4186f6b6457e060405160405180910390a35050565b600081519050919050565b7f4e487b7100000000000000000000000000000000000000000000000000000000600052604160045260246000fd5b7f4e487b7100000000000000000000000000000000000000000000000000000000600052602260045260246000fd5b600060028204905060018216806200028557607f821691505b6020821081036200029b576200029a6200023d565b5b50919050565b60008190508160005260206000209050919050565b60006020601f8301049050919050565b600082821b905092915050565b600060088302620003057fffffffffffffffffffffffffffffffffffffffffffffffffffffffffffffffff82620002c6565b620003118683620002c6565b95508019841693508086168417925050509392505050565b6000819050919050565b6000819050919050565b60006200035e62000358620003528462000329565b62000333565b62000329565b9050919050565b6000819050919050565b6200037a836200033d565b62000392620003898262000365565b848454620002d3565b825550505050565b600090565b620003a96200039a565b620003b68184846200036f565b505050565b5b81811015620003de57620003d26000826200039f565b600181019050620003bc565b5050565b601f8211156200042d57620003f781620002a1565b6200040284620002b6565b8101602085101562000412578190505b6200042a6200042185620002b6565b830182620003bb565b50505b505050565b600082821c905092915050565b6000620004526000198460080262000432565b1980831691505092915050565b60006200046d83836200043f565b9150826002028217905092915050565b620004888262000203565b67ffffffffffffffff811115620004a457620004a36200020e565b5b620004b082546200026c565b620004bd828285620003e2565b600060209050601f831160018114620004f55760008415620004e0578287015190505b620004ec85826200045f565b8655506200055c565b601f1984166200050586620002a1565b60005b828110156200052f5784890151825560018201915060208501945060208101905062000508565b868310156200054f57848901516200054b601f8916826200043f565b8355505b6001600288020188555050505b505050505050565b6080516122d56200058760003960008181610bb3015261111001526122d56000f3fe60806040526004361061014b5760003560e01c8063860d3e69116100b6578063b88d4fde1161006f578063b88d4fde1461044a578063c5c32e3114610466578063c87b56dd1461047d578063d5abeb01146104ba578063e985e9c5146104e5578063f2fde38b146105225761014b565b8063860d3e691461034c5780638d6cc56d146103775780638da5cb5b146103a057806395d89b41146103cb578063a035b1fe146103f6578063a22cb465146104215761014b565b8063379607f511610108578063379607f51461025857806342842e0e146102745780636352211e146102905780636c0360eb146102cd57806370a08231146102f8578063715018a6146103355761014b565b806301ffc9a71461015057806306fdde031461018d578063081812fc146101b8578063095ea7b3146101f557806318160ddd1461021157806323b872dd1461023c575b600080fd5b34801561015c57600080fd5b506101776004803603810190610172919061198a565b61054b565b60405161018491906119d2565b60405180910390f35b34801561019957600080fd5b506101a26105dd565b6040516101af9190611a86565b60405180910390f35b3480156101c457600080fd5b506101df60048036038101906101da9190611ade565b61066f565b6040516101ec9190611b4c565b60405180910390f35b61020f600480360381019061020a9190611b93565b6106ee565b005b34801561021d57600080fd5b50610226610832565b6040516102339190611be2565b60405180910390f35b61025660048036038101906102519190611bfd565b610849565b005b610272600480360381019061026d9190611ade565b610b6b565b005b61028e60048036038101906102899190611bfd565b610c2a565b005b34801561029c57600080fd5b506102b760048036038101906102b29190611ade565b610c4a565b6040516102c49190611b4c565b60405180910390f35b3480156102d957600080fd5b506102e2610c5c565b6040516102ef9190611a86565b60405180910390f35b34801561030457600080fd5b5061031f600480360381019061031a9190611c50565b610cea565b60405161032c9190611be2565b60405180910390f35b34801561034157600080fd5b5061034a610da2565b005b34801561035857600080fd5b50610361610db6565b60405161036e91906119d2565b60405180910390f35b34801561038357600080fd5b5061039e60048036038101906103999190611ade565b610dc9565b005b3480156103ac57600080fd5b506103b5610ddb565b6040516103c29190611b4c565b60405180910390f35b3480156103d757600080fd5b506103e0610e05565b6040516103ed9190611a86565b60405180910390f35b34801561040257600080fd5b5061040b610e97565b6040516104189190611be2565b60405180910390f35b34801561042d57600080fd5b5061044860048036038101906104439190611ca9565b610e9d565b005b610464600480360381019061045f9190611e1e565b610fa8565b005b34801561047257600080fd5b5061047b61101b565b005b34801561048957600080fd5b506104a4600480360381019061049f9190611ade565b6110da565b6040516104b19190611a86565b60405180910390f35b3480156104c657600080fd5b506104cf61110e565b6040516104dc9190611be2565b60405180910390f35b3480156104f157600080fd5b5061050c60048036038101906105079190611ea1565b611132565b60405161051991906119d2565b60405180910390f35b34801561052e57600080fd5b5061054960048036038101906105449190611c50565b6111c6565b005b60006301ffc9a760e01b827bffffffffffffffffffffffffffffffffffffffffffffffffffffffff191614806105a657506380ac58cd60e01b827bffffffffffffffffffffffffffffffffffffffffffffffffffffffff1916145b806105d65750635b5e139f60e01b827bffffffffffffffffffffffffffffffffffffffffffffffffffffffff1916145b9050919050565b6060600280546105ec90611f10565b80601f016020809104026020016040519081016040528092919081815260200182805461061890611f10565b80156106655780601f1061063a57610100808354040283529160200191610665565b820191906000526020600020905b81548152906001019060200180831161064857829003601f168201915b5050505050905090565b600061067a82611249565b6106b0576040517fcf4700e400000000000000000000000000000000000000000000000000000000815260040160405180910390fd5b6006600083815260200190815260200160002060000160009054906101000a900473ffffffffffffffffffffffffffffffffffffffff169050919050565b60006106f982610c4a565b90508073ffffffffffffffffffffffffffffffffffffffff1661071a6112a8565b73ffffffffffffffffffffffffffffffffffffffff161461077d57610746816107416112a8565b611132565b61077c576040517fcfb3b94200000000000000000000000000000000000000000000000000000000815260040160405180910390fd5b5b826006600084815260200190815260200160002060000160006101000a81548173ffffffffffffffffffffffffffffffffffffffff021916908373ffffffffffffffffffffffffffffffffffffffff160217905550818373ffffffffffffffffffffffffffffffffffffffff168273ffffffffffffffffffffffffffffffffffffffff167f8c5be1e5ebec7d5bd14f71427d1e84f3dd0314c0f7b2291e5b200ac8c7c3b92560405160405180910390a4505050565b600061083c6112b0565b6001546000540303905090565b6000610854826112b5565b90508373ffffffffffffffffffffffffffffffffffffffff168173ffffffffffffffffffffffffffffffffffffffff16146108bb576040517fa114810000000000000000000000000000000000000000000000000000000000815260040160405180910390fd5b6000806108c784611381565b915091506108dd81876108d86112a8565b6113a8565b610929576108f2866108ed6112a8565b611132565b610928576040517f59c896be00000000000000000000000000000000000000000000000000000000815260040160405180910390fd5b5b600073ffffffffffffffffffffffffffffffffffffffff168573ffffffffffffffffffffffffffffffffffffffff160361098f576040517fea553b3400000000000000000000000000000000000000000000000000000000815260040160405180910390fd5b61099c86868660016113ec565b80156109a757600082555b600560008773ffffffffffffffffffffffffffffffffffffffff1673ffffffffffffffffffffffffffffffffffffffff168152602001908152602001600020600081546001900391905081905550600560008673ffffffffffffffffffffffffffffffffffffffff1673ffffffffffffffffffffffffffffffffffffffff1681526020019081526020016000206000815460010191905081905550610a7585610a518888876113f2565b7c02000000000000000000000000000000000000000000000000000000001761141a565b600460008681526020019081526020016000208190555060007c0200000000000000000000000000000000000000000000000000000000841603610afb5760006001850190506000600460008381526020019081526020016000205403610af9576000548114610af8578360046000838152602001908152602001600020819055505b5b505b838573ffffffffffffffffffffffffffffffffffffffff168773ffffffffffffffffffffffffffffffffffffffff167fddf252ad1be2c89b69c2b068fc378daa952ba7f163c4a11628f55a4df523b3ef60405160405180910390a4610b638686866001611445565b505050505050565b600860149054906101000a900460ff16610bb1576040517fa7e4d9bd00000000000000000000000000000000000000000000000000000000815260040160405180910390fd5b7f000000000000000000000000000000000000000000000000000000000000000081610bdb61144b565b610be59190611f70565b1115610c1d576040517f846fb9e200000000000000000000000000000000000000000000000000000000815260040160405180910390fd5b610c27338261145e565b50565b610c4583838360405180602001604052806000815250610fa8565b505050565b6000610c55826112b5565b9050919050565b600a8054610c6990611f10565b80601f0160208091040260200160405190810160405280929190818152602001828054610c9590611f10565b8015610ce25780601f10610cb757610100808354040283529160200191610ce2565b820191906000526020600020905b815481529060010190602001808311610cc557829003601f168201915b505050505081565b60008073ffffffffffffffffffffffffffffffffffffffff168273ffffffffffffffffffffffffffffffffffffffff1603610d51576040517f8f4eb60400000000000000000000000000000000000000000000000000000000815260040160405180910390fd5b67ffffffffffffffff600560008473ffffffffffffffffffffffffffffffffffffffff1673ffffffffffffffffffffffffffffffffffffffff16815260200190815260200160002054169050919050565b610daa611619565b610db46000611697565b565b600860149054906101000a900460ff1681565b610dd1611619565b8060098190555050565b6000600860009054906101000a900473ffffffffffffffffffffffffffffffffffffffff16905090565b606060038054610e1490611f10565b80601f0160208091040260200160405190810160405280929190818152602001828054610e4090611f10565b8015610e8d5780601f10610e6257610100808354040283529160200191610e8d565b820191906000526020600020905b815481529060010190602001808311610e7057829003601f168201915b5050505050905090565b60095481565b8060076000610eaa6112a8565b73ffffffffffffffffffffffffffffffffffffffff1673ffffffffffffffffffffffffffffffffffffffff16815260200190815260200160002060008473ffffffffffffffffffffffffffffffffffffffff1673ffffffffffffffffffffffffffffffffffffffff16815260200190815260200160002060006101000a81548160ff0219169083151502179055508173ffffffffffffffffffffffffffffffffffffffff16610f576112a8565b73ffffffffffffffffffffffffffffffffffffffff167f17307eab39ab6107e8899845ad3d59bd9653f200f220920489ca2b5937696c3183604051610f9c91906119d2565b60405180910390a35050565b610fb3848484610849565b60008373ffffffffffffffffffffffffffffffffffffffff163b1461101557610fde8484848461175d565b611014576040517fd1a57ed600000000000000000000000000000000000000000000000000000000815260040160405180910390fd5b5b50505050565b611023611619565b600860149054906101000a900460ff1615611075577f31049bf3bf355501468eae392a37a331d82c9afcb4426073a12b21f1d597fb8c600160405161106891906119d2565b60405180910390a16110ae565b7f31049bf3bf355501468eae392a37a331d82c9afcb4426073a12b21f1d597fb8c60006040516110a591906119d2565b60405180910390a15b600860149054906101000a900460ff1615600860146101000a81548160ff021916908315150217905550565b6060600a6110e7836118ad565b6040516020016110f892919061209a565b6040516020818303038152906040529050919050565b7f000000000000000000000000000000000000000000000000000000000000000081565b6000600760008473ffffffffffffffffffffffffffffffffffffffff1673ffffffffffffffffffffffffffffffffffffffff16815260200190815260200160002060008373ffffffffffffffffffffffffffffffffffffffff1673ffffffffffffffffffffffffffffffffffffffff16815260200190815260200160002060009054906101000a900460ff16905092915050565b6111ce611619565b600073ffffffffffffffffffffffffffffffffffffffff168173ffffffffffffffffffffffffffffffffffffffff160361123d576040517f08c379a000000000000000000000000000000000000000000000000000000000815260040161123490612130565b60405180910390fd5b61124681611697565b50565b6000816112546112b0565b11158015611263575060005482105b80156112a1575060007c0100000000000000000000000000000000000000000000000000000000600460008581526020019081526020016000205416145b9050919050565b600033905090565b600090565b600080829050806112c46112b0565b1161134a576000548110156113495760006004600083815260200190815260200160002054905060007c0100000000000000000000000000000000000000000000000000000000821603611347575b6000810361133d576004600083600190039350838152602001908152602001600020549050611313565b809250505061137c565b505b5b6040517fdf2d9b4200000000000000000000000000000000000000000000000000000000815260040160405180910390fd5b919050565b60008060006006600085815260200190815260200160002090508092508254915050915091565b600073ffffffffffffffffffffffffffffffffffffffff8316925073ffffffffffffffffffffffffffffffffffffffff821691508382148383141790509392505050565b50505050565b60008060e883901c905060e86114098686846118fd565b62ffffff16901b9150509392505050565b600073ffffffffffffffffffffffffffffffffffffffff83169250814260a01b178317905092915050565b50505050565b60006114556112b0565b60005403905090565b6000805490506000820361149e576040517fb562e8dd00000000000000000000000000000000000000000000000000000000815260040160405180910390fd5b6114ab60008483856113ec565b600160406001901b178202600560008573ffffffffffffffffffffffffffffffffffffffff1673ffffffffffffffffffffffffffffffffffffffff168152602001908152602001600020600082825401925050819055506115228361151360008660006113f2565b61151c85611906565b1761141a565b6004600083815260200190815260200160002081905550600080838301905073ffffffffffffffffffffffffffffffffffffffff85169150828260007fddf252ad1be2c89b69c2b068fc378daa952ba7f163c4a11628f55a4df523b3ef600080a4600183015b8181146115c357808360007fddf252ad1be2c89b69c2b068fc378daa952ba7f163c4a11628f55a4df523b3ef600080a4600181019050611588565b50600082036115fe576040517f2e07630000000000000000000000000000000000000000000000000000000000815260040160405180910390fd5b8060008190555050506116146000848385611445565b505050565b611621611916565b73ffffffffffffffffffffffffffffffffffffffff1661163f610ddb565b73ffffffffffffffffffffffffffffffffffffffff1614611695576040517f08c379a000000000000000000000000000000000000000000000000000000000815260040161168c9061219c565b60405180910390fd5b565b6000600860009054906101000a900473ffffffffffffffffffffffffffffffffffffffff16905081600860006101000a81548173ffffffffffffffffffffffffffffffffffffffff021916908373ffffffffffffffffffffffffffffffffffffffff1602179055508173ffffffffffffffffffffffffffffffffffffffff168173ffffffffffffffffffffffffffffffffffffffff167f8be0079c531659141344cd1fd0a4f28419497f9722a3daafe3b4186f6b6457e060405160405180910390a35050565b60008373ffffffffffffffffffffffffffffffffffffffff1663150b7a026117836112a8565b8786866040518563ffffffff1660e01b81526004016117a59493929190612211565b6020604051808303816000875af19250505080156117e157506040513d601f19601f820116820180604052508101906117de9190612272565b60015b61185a573d8060008114611811576040519150601f19603f3d011682016040523d82523d6000602084013e611816565b606091505b506000815103611852576040517fd1a57ed600000000000000000000000000000000000000000000000000000000815260040160405180910390fd5b805181602001fd5b63150b7a0260e01b7bffffffffffffffffffffffffffffffffffffffffffffffffffffffff1916817bffffffffffffffffffffffffffffffffffffffffffffffffffffffff191614915050949350505050565b606060a060405101806040526020810391506000825281835b6001156118e857600184039350600a81066030018453600a81049050806118c6575b50828103602084039350808452505050919050565b60009392505050565b60006001821460e11b9050919050565b600033905090565b6000604051905090565b600080fd5b600080fd5b60007fffffffff0000000000000000000000000000000000000000000000000000000082169050919050565b61196781611932565b811461197257600080fd5b50565b6000813590506119848161195e565b92915050565b6000602082840312156119a05761199f611928565b5b60006119ae84828501611975565b91505092915050565b60008115159050919050565b6119cc816119b7565b82525050565b60006020820190506119e760008301846119c3565b92915050565b600081519050919050565b600082825260208201905092915050565b60005b83811015611a27578082015181840152602081019050611a0c565b83811115611a36576000848401525b50505050565b6000601f19601f8301169050919050565b6000611a58826119ed565b611a6281856119f8565b9350611a72818560208601611a09565b611a7b81611a3c565b840191505092915050565b60006020820190508181036000830152611aa08184611a4d565b905092915050565b6000819050919050565b611abb81611aa8565b8114611ac657600080fd5b50565b600081359050611ad881611ab2565b92915050565b600060208284031215611af457611af3611928565b5b6000611b0284828501611ac9565b91505092915050565b600073ffffffffffffffffffffffffffffffffffffffff82169050919050565b6000611b3682611b0b565b9050919050565b611b4681611b2b565b82525050565b6000602082019050611b616000830184611b3d565b92915050565b611b7081611b2b565b8114611b7b57600080fd5b50565b600081359050611b8d81611b67565b92915050565b60008060408385031215611baa57611ba9611928565b5b6000611bb885828601611b7e565b9250506020611bc985828601611ac9565b9150509250929050565b611bdc81611aa8565b82525050565b6000602082019050611bf76000830184611bd3565b92915050565b600080600060608486031215611c1657611c15611928565b5b6000611c2486828701611b7e565b9350506020611c3586828701611b7e565b9250506040611c4686828701611ac9565b9150509250925092565b600060208284031215611c6657611c65611928565b5b6000611c7484828501611b7e565b91505092915050565b611c86816119b7565b8114611c9157600080fd5b50565b600081359050611ca381611c7d565b92915050565b60008060408385031215611cc057611cbf611928565b5b6000611cce85828601611b7e565b9250506020611cdf85828601611c94565b9150509250929050565b600080fd5b600080fd5b7f4e487b7100000000000000000000000000000000000000000000000000000000600052604160045260246000fd5b611d2b82611a3c565b810181811067ffffffffffffffff82111715611d4a57611d49611cf3565b5b80604052505050565b6000611d5d61191e565b9050611d698282611d22565b919050565b600067ffffffffffffffff821115611d8957611d88611cf3565b5b611d9282611a3c565b9050602081019050919050565b82818337600083830152505050565b6000611dc1611dbc84611d6e565b611d53565b905082815260208101848484011115611ddd57611ddc611cee565b5b611de8848285611d9f565b509392505050565b600082601f830112611e0557611e04611ce9565b5b8135611e15848260208601611dae565b91505092915050565b60008060008060808587031215611e3857611e37611928565b5b6000611e4687828801611b7e565b9450506020611e5787828801611b7e565b9350506040611e6887828801611ac9565b925050606085013567ffffffffffffffff811115611e8957611e8861192d565b5b611e9587828801611df0565b91505092959194509250565b60008060408385031215611eb857611eb7611928565b5b6000611ec685828601611b7e565b9250506020611ed785828601611b7e565b9150509250929050565b7f4e487b7100000000000000000000000000000000000000000000000000000000600052602260045260246000fd5b60006002820490506001821680611f2857607f821691505b602082108103611f3b57611f3a611ee1565b5b50919050565b7f4e487b7100000000000000000000000000000000000000000000000000000000600052601160045260246000fd5b6000611f7b82611aa8565b9150611f8683611aa8565b9250827fffffffffffffffffffffffffffffffffffffffffffffffffffffffffffffffff03821115611fbb57611fba611f41565b5b828201905092915050565b600081905092915050565b60008190508160005260206000209050919050565b60008154611ff381611f10565b611ffd8186611fc6565b94506001821660008114612018576001811461202d57612060565b60ff1983168652811515820286019350612060565b61203685611fd1565b60005b8381101561205857815481890152600182019150602081019050612039565b838801955050505b50505092915050565b6000612074826119ed565b61207e8185611fc6565b935061208e818560208601611a09565b80840191505092915050565b60006120a68285611fe6565b91506120b28284612069565b91508190509392505050565b7f4f776e61626c653a206e6577206f776e657220697320746865207a65726f206160008201527f6464726573730000000000000000000000000000000000000000000000000000602082015250565b600061211a6026836119f8565b9150612125826120be565b604082019050919050565b600060208201905081810360008301526121498161210d565b9050919050565b7f4f776e61626c653a2063616c6c6572206973206e6f7420746865206f776e6572600082015250565b60006121866020836119f8565b915061219182612150565b602082019050919050565b600060208201905081810360008301526121b581612179565b9050919050565b600081519050919050565b600082825260208201905092915050565b60006121e3826121bc565b6121ed81856121c7565b93506121fd818560208601611a09565b61220681611a3c565b840191505092915050565b60006080820190506122266000830187611b3d565b6122336020830186611b3d565b6122406040830185611bd3565b818103606083015261225281846121d8565b905095945050505050565b60008151905061226c8161195e565b92915050565b60006020828403121561228857612287611928565b5b60006122968482850161225d565b9150509291505056fea2646970667358221220be82b4600c99ced96efd61591fa1612ba877d92e2a9832eeef1b42a0cef02a0c64736f6c634300080f0033",
  "linkReferences": {},
  "deployedLinkReferences": {}
}