{
  "_format": "hh-sol-artifact-1",
  "contractName": "NightmareOnEtherStreet",
  "sourceName": "contracts/NightmareOnEtherStreet.sol",
  "abi": [
    {
      "inputs": [
        {
          "internalType": "address",
          "name": "benef",
          "type": "address"
        }
      ],
      "stateMutability": "nonpayable",
      "type": "constructor"
    },
    {
      "inputs": [],
      "name": "ApprovalCallerNotOwnerNorApproved",
      "type": "error"
    },
    {
      "inputs": [],
      "name": "ApprovalQueryForNonexistentToken",
      "type": "error"
    },
    {
      "inputs": [],
      "name": "BalanceQueryForZeroAddress",
      "type": "error"
    },
    {
      "inputs": [],
      "name": "InsufficientFuends",
      "type": "error"
    },
    {
      "inputs": [],
      "name": "MintERC2309QuantityExceedsLimit",
      "type": "error"
    },
    {
      "inputs": [],
      "name": "MintToZeroAddress",
      "type": "error"
    },
    {
      "inputs": [],
      "name": "MintZeroQuantity",
      "type": "error"
    },
    {
      "inputs": [],
      "name": "MintedOut",
      "type": "error"
    },
    {
      "inputs": [],
      "name": "MintingClosed",
      "type": "error"
    },
    {
      "inputs": [],
      "name": "OwnerQueryForNonexistentToken",
      "type": "error"
    },
    {
      "inputs": [],
      "name": "OwnershipNotInitializedForExtraData",
      "type": "error"
    },
    {
      "inputs": [],
      "name": "TransferCallerNotOwnerNorApproved",
      "type": "error"
    },
    {
      "inputs": [],
      "name": "TransferFromIncorrectOwner",
      "type": "error"
    },
    {
      "inputs": [],
      "name": "TransferToNonERC721ReceiverImplementer",
      "type": "error"
    },
    {
      "inputs": [],
      "name": "TransferToZeroAddress",
      "type": "error"
    },
    {
      "inputs": [],
      "name": "URIQueryForNonexistentToken",
      "type": "error"
    },
    {
      "anonymous": false,
      "inputs": [
        {
          "indexed": true,
          "internalType": "address",
          "name": "owner",
          "type": "address"
        },
        {
          "indexed": true,
          "internalType": "address",
          "name": "approved",
          "type": "address"
        },
        {
          "indexed": true,
          "internalType": "uint256",
          "name": "tokenId",
          "type": "uint256"
        }
      ],
      "name": "Approval",
      "type": "event"
    },
    {
      "anonymous": false,
      "inputs": [
        {
          "indexed": true,
          "internalType": "address",
          "name": "owner",
          "type": "address"
        },
        {
          "indexed": true,
          "internalType": "address",
          "name": "operator",
          "type": "address"
        },
        {
          "indexed": false,
          "internalType": "bool",
          "name": "approved",
          "type": "bool"
        }
      ],
      "name": "ApprovalForAll",
      "type": "event"
    },
    {
      "anonymous": false,
      "inputs": [
        {
          "indexed": true,
          "internalType": "uint256",
          "name": "fromTokenId",
          "type": "uint256"
        },
        {
          "indexed": false,
          "internalType": "uint256",
          "name": "toTokenId",
          "type": "uint256"
        },
        {
          "indexed": true,
          "internalType": "address",
          "name": "from",
          "type": "address"
        },
        {
          "indexed": true,
          "internalType": "address",
          "name": "to",
          "type": "address"
        }
      ],
      "name": "ConsecutiveTransfer",
      "type": "event"
    },
    {
      "anonymous": false,
      "inputs": [
        {
          "indexed": true,
          "internalType": "address",
          "name": "previousOwner",
          "type": "address"
        },
        {
          "indexed": true,
          "internalType": "address",
          "name": "newOwner",
          "type": "address"
        }
      ],
      "name": "OwnershipTransferred",
      "type": "event"
    },
    {
      "anonymous": false,
      "inputs": [
        {
          "indexed": false,
          "internalType": "bool",
          "name": "",
          "type": "bool"
        }
      ],
      "name": "StatusChange",
      "type": "event"
    },
    {
      "anonymous": false,
      "inputs": [
        {
          "indexed": true,
          "internalType": "address",
          "name": "from",
          "type": "address"
        },
        {
          "indexed": true,
          "internalType": "address",
          "name": "to",
          "type": "address"
        },
        {
          "indexed": true,
          "internalType": "uint256",
          "name": "tokenId",
          "type": "uint256"
        }
      ],
      "name": "Transfer",
      "type": "event"
    },
    {
      "inputs": [
        {
          "internalType": "address",
          "name": "to",
          "type": "address"
        },
        {
          "internalType": "uint256",
          "name": "tokenId",
          "type": "uint256"
        }
      ],
      "name": "approve",
      "outputs": [],
      "stateMutability": "payable",
      "type": "function"
    },
    {
      "inputs": [
        {
          "internalType": "address",
          "name": "owner",
          "type": "address"
        }
      ],
      "name": "balanceOf",
      "outputs": [
        {
          "internalType": "uint256",
          "name": "",
          "type": "uint256"
        }
      ],
      "stateMutability": "view",
      "type": "function"
    },
    {
      "inputs": [],
      "name": "baseURI",
      "outputs": [
        {
          "internalType": "string",
          "name": "",
          "type": "string"
        }
      ],
      "stateMutability": "view",
      "type": "function"
    },
    {
      "inputs": [
        {
          "internalType": "uint256",
          "name": "quantity",
          "type": "uint256"
        }
      ],
      "name": "claim",
      "outputs": [],
      "stateMutability": "payable",
      "type": "function"
    },
    {
      "inputs": [
        {
          "internalType": "uint256",
          "name": "tokenId",
          "type": "uint256"
        }
      ],
      "name": "getApproved",
      "outputs": [
        {
          "internalType": "address",
          "name": "",
          "type": "address"
        }
      ],
      "stateMutability": "view",
      "type": "function"
    },
    {
      "inputs": [
        {
          "internalType": "address",
          "name": "owner",
          "type": "address"
        },
        {
          "internalType": "address",
          "name": "operator",
          "type": "address"
        }
      ],
      "name": "isApprovedForAll",
      "outputs": [
        {
          "internalType": "bool",
          "name": "",
          "type": "bool"
        }
      ],
      "stateMutability": "view",
      "type": "function"
    },
    {
      "inputs": [],
      "name": "maxSupply",
      "outputs": [
        {
          "internalType": "uint256",
          "name": "",
          "type": "uint256"
        }
      ],
      "stateMutability": "view",
      "type": "function"
    },
    {
      "inputs": [],
      "name": "name",
      "outputs": [
        {
          "internalType": "string",
          "name": "",
          "type": "string"
        }
      ],
      "stateMutability": "view",
      "type": "function"
    },
    {
      "inputs": [],
      "name": "owner",
      "outputs": [
        {
          "internalType": "address",
          "name": "",
          "type": "address"
        }
      ],
      "stateMutability": "view",
      "type": "function"
    },
    {
      "inputs": [
        {
          "internalType": "uint256",
          "name": "tokenId",
          "type": "uint256"
        }
      ],
      "name": "ownerOf",
      "outputs": [
        {
          "internalType": "address",
          "name": "",
          "type": "address"
        }
      ],
      "stateMutability": "view",
      "type": "function"
    },
    {
      "inputs": [],
      "name": "price",
      "outputs": [
        {
          "internalType": "uint256",
          "name": "",
          "type": "uint256"
        }
      ],
      "stateMutability": "view",
      "type": "function"
    },
    {
      "inputs": [],
      "name": "renounceOwnership",
      "outputs": [],
      "stateMutability": "nonpayable",
      "type": "function"
    },
    {
      "inputs": [
        {
          "internalType": "address",
          "name": "from",
          "type": "address"
        },
        {
          "internalType": "address",
          "name": "to",
          "type": "address"
        },
        {
          "internalType": "uint256",
          "name": "tokenId",
          "type": "uint256"
        }
      ],
      "name": "safeTransferFrom",
      "outputs": [],
      "stateMutability": "payable",
      "type": "function"
    },
    {
      "inputs": [
        {
          "internalType": "address",
          "name": "from",
          "type": "address"
        },
        {
          "internalType": "address",
          "name": "to",
          "type": "address"
        },
        {
          "internalType": "uint256",
          "name": "tokenId",
          "type": "uint256"
        },
        {
          "internalType": "bytes",
          "name": "_data",
          "type": "bytes"
        }
      ],
      "name": "safeTransferFrom",
      "outputs": [],
      "stateMutability": "payable",
      "type": "function"
    },
    {
      "inputs": [
        {
          "internalType": "address",
          "name": "operator",
          "type": "address"
        },
        {
          "internalType": "bool",
          "name": "approved",
          "type": "bool"
        }
      ],
      "name": "setApprovalForAll",
      "outputs": [],
      "stateMutability": "nonpayable",
      "type": "function"
    },
    {
      "inputs": [
        {
          "internalType": "bytes4",
          "name": "interfaceId",
          "type": "bytes4"
        }
      ],
      "name": "supportsInterface",
      "outputs": [
        {
          "internalType": "bool",
          "name": "",
          "type": "bool"
        }
      ],
      "stateMutability": "view",
      "type": "function"
    },
    {
      "inputs": [],
      "name": "symbol",
      "outputs": [
        {
          "internalType": "string",
          "name": "",
          "type": "string"
        }
      ],
      "stateMutability": "view",
      "type": "function"
    },
    {
      "inputs": [
        {
          "internalType": "uint256",
          "name": "tokenId",
          "type": "uint256"
        }
      ],
      "name": "tokenURI",
      "outputs": [
        {
          "internalType": "string",
          "name": "",
          "type": "string"
        }
      ],
      "stateMutability": "view",
      "type": "function"
    },
    {
      "inputs": [],
      "name": "totalSupply",
      "outputs": [
        {
          "internalType": "uint256",
          "name": "",
          "type": "uint256"
        }
      ],
      "stateMutability": "view",
      "type": "function"
    },
    {
      "inputs": [
        {
          "internalType": "address",
          "name": "from",
          "type": "address"
        },
        {
          "internalType": "address",
          "name": "to",
          "type": "address"
        },
        {
          "internalType": "uint256",
          "name": "tokenId",
          "type": "uint256"
        }
      ],
      "name": "transferFrom",
      "outputs": [],
      "stateMutability": "payable",
      "type": "function"
    },
    {
      "inputs": [
        {
          "internalType": "address",
          "name": "newOwner",
          "type": "address"
        }
      ],
      "name": "transferOwnership",
      "outputs": [],
      "stateMutability": "nonpayable",
      "type": "function"
    },
    {
      "inputs": [],
      "name": "updateHaunting",
      "outputs": [],
      "stateMutability": "nonpayable",
      "type": "function"
    },
    {
      "inputs": [
        {
          "internalType": "uint256",
          "name": "newPrice",
          "type": "uint256"
        }
      ],
      "name": "updatePrice",
      "outputs": [],
      "stateMutability": "nonpayable",
      "type": "function"
    },
    {
      "inputs": [],
      "name": "witchingHour",
      "outputs": [
        {
          "internalType": "bool",
          "name": "",
          "type": "bool"
        }
      ],
      "stateMutability": "view",
      "type": "function"
    },
    {
      "inputs": [],
      "name": "withdraw",
      "outputs": [],
      "stateMutability": "nonpayable",
      "type": "function"
    }
  ],
  "bytecode": "0x60a0604052611a0d608090815250661550f7dca70000600b553480156200002557600080fd5b5060405162002aa538038062002aa583398181016040528101906200004b9190620002d4565b6040518060400160405280601981526020017f4e696768746d617265204f6e20457468657220537472656574000000000000008152506040518060400160405280600481526020017f4e4f4553000000000000000000000000000000000000000000000000000000008152508160029081620000c8919062000580565b508060039081620000da919062000580565b50620000eb6200019760201b60201c565b600081905550505062000113620001076200019c60201b60201c565b620001a460201b60201c565b6000600c60006101000a81548160ff02191690831515021790555060405180602001604052806000815250600990816200014e919062000580565b5080600a60006101000a81548173ffffffffffffffffffffffffffffffffffffffff021916908373ffffffffffffffffffffffffffffffffffffffff1602179055505062000667565b600090565b600033905090565b6000600860009054906101000a900473ffffffffffffffffffffffffffffffffffffffff16905081600860006101000a81548173ffffffffffffffffffffffffffffffffffffffff021916908373ffffffffffffffffffffffffffffffffffffffff1602179055508173ffffffffffffffffffffffffffffffffffffffff168173ffffffffffffffffffffffffffffffffffffffff167f8be0079c531659141344cd1fd0a4f28419497f9722a3daafe3b4186f6b6457e060405160405180910390a35050565b600080fd5b600073ffffffffffffffffffffffffffffffffffffffff82169050919050565b60006200029c826200026f565b9050919050565b620002ae816200028f565b8114620002ba57600080fd5b50565b600081519050620002ce81620002a3565b92915050565b600060208284031215620002ed57620002ec6200026a565b5b6000620002fd84828501620002bd565b91505092915050565b600081519050919050565b7f4e487b7100000000000000000000000000000000000000000000000000000000600052604160045260246000fd5b7f4e487b7100000000000000000000000000000000000000000000000000000000600052602260045260246000fd5b600060028204905060018216806200038857607f821691505b6020821081036200039e576200039d62000340565b5b50919050565b60008190508160005260206000209050919050565b60006020601f8301049050919050565b600082821b905092915050565b600060088302620004087fffffffffffffffffffffffffffffffffffffffffffffffffffffffffffffffff82620003c9565b620004148683620003c9565b95508019841693508086168417925050509392505050565b6000819050919050565b6000819050919050565b6000620004616200045b62000455846200042c565b62000436565b6200042c565b9050919050565b6000819050919050565b6200047d8362000440565b620004956200048c8262000468565b848454620003d6565b825550505050565b600090565b620004ac6200049d565b620004b981848462000472565b505050565b5b81811015620004e157620004d5600082620004a2565b600181019050620004bf565b5050565b601f8211156200053057620004fa81620003a4565b6200050584620003b9565b8101602085101562000515578190505b6200052d6200052485620003b9565b830182620004be565b50505b505050565b600082821c905092915050565b6000620005556000198460080262000535565b1980831691505092915050565b600062000570838362000542565b9150826002028217905092915050565b6200058b8262000306565b67ffffffffffffffff811115620005a757620005a662000311565b5b620005b382546200036f565b620005c0828285620004e5565b600060209050601f831160018114620005f85760008415620005e3578287015190505b620005ef858262000562565b8655506200065f565b601f1984166200060886620003a4565b60005b8281101562000632578489015182556001820191506020850194506020810190506200060b565b868310156200065257848901516200064e601f89168262000542565b8355505b6001600288020188555050505b505050505050565b60805161241b6200068a60003960008181610be501526111fc015261241b6000f3fe6080604052600436106101665760003560e01c8063715018a6116100d1578063a22cb4651161008a578063c87b56dd11610064578063c87b56dd146104af578063d5abeb01146104ec578063e985e9c514610517578063f2fde38b1461055457610166565b8063a22cb46514610453578063b88d4fde1461047c578063c5c32e311461049857610166565b8063715018a614610367578063860d3e691461037e5780638d6cc56d146103a95780638da5cb5b146103d257806395d89b41146103fd578063a035b1fe1461042857610166565b8063379607f511610123578063379607f5146102735780633ccfd60b1461028f57806342842e0e146102a65780636352211e146102c25780636c0360eb146102ff57806370a082311461032a57610166565b806301ffc9a71461016b57806306fdde03146101a8578063081812fc146101d3578063095ea7b31461021057806318160ddd1461022c57806323b872dd14610257575b600080fd5b34801561017757600080fd5b50610192600480360381019061018d9190611a76565b61057d565b60405161019f9190611abe565b60405180910390f35b3480156101b457600080fd5b506101bd61060f565b6040516101ca9190611b72565b60405180910390f35b3480156101df57600080fd5b506101fa60048036038101906101f59190611bca565b6106a1565b6040516102079190611c38565b60405180910390f35b61022a60048036038101906102259190611c7f565b610720565b005b34801561023857600080fd5b50610241610864565b60405161024e9190611cce565b60405180910390f35b610271600480360381019061026c9190611ce9565b61087b565b005b61028d60048036038101906102889190611bca565b610b9d565b005b34801561029b57600080fd5b506102a4610ca3565b005b6102c060048036038101906102bb9190611ce9565b610d16565b005b3480156102ce57600080fd5b506102e960048036038101906102e49190611bca565b610d36565b6040516102f69190611c38565b60405180910390f35b34801561030b57600080fd5b50610314610d48565b6040516103219190611b72565b60405180910390f35b34801561033657600080fd5b50610351600480360381019061034c9190611d3c565b610dd6565b60405161035e9190611cce565b60405180910390f35b34801561037357600080fd5b5061037c610e8e565b005b34801561038a57600080fd5b50610393610ea2565b6040516103a09190611abe565b60405180910390f35b3480156103b557600080fd5b506103d060048036038101906103cb9190611bca565b610eb5565b005b3480156103de57600080fd5b506103e7610ec7565b6040516103f49190611c38565b60405180910390f35b34801561040957600080fd5b50610412610ef1565b60405161041f9190611b72565b60405180910390f35b34801561043457600080fd5b5061043d610f83565b60405161044a9190611cce565b60405180910390f35b34801561045f57600080fd5b5061047a60048036038101906104759190611d95565b610f89565b005b61049660048036038101906104919190611f0a565b611094565b005b3480156104a457600080fd5b506104ad611107565b005b3480156104bb57600080fd5b506104d660048036038101906104d19190611bca565b6111c6565b6040516104e39190611b72565b60405180910390f35b3480156104f857600080fd5b506105016111fa565b60405161050e9190611cce565b60405180910390f35b34801561052357600080fd5b5061053e60048036038101906105399190611f8d565b61121e565b60405161054b9190611abe565b60405180910390f35b34801561056057600080fd5b5061057b60048036038101906105769190611d3c565b6112b2565b005b60006301ffc9a760e01b827bffffffffffffffffffffffffffffffffffffffffffffffffffffffff191614806105d857506380ac58cd60e01b827bffffffffffffffffffffffffffffffffffffffffffffffffffffffff1916145b806106085750635b5e139f60e01b827bffffffffffffffffffffffffffffffffffffffffffffffffffffffff1916145b9050919050565b60606002805461061e90611ffc565b80601f016020809104026020016040519081016040528092919081815260200182805461064a90611ffc565b80156106975780601f1061066c57610100808354040283529160200191610697565b820191906000526020600020905b81548152906001019060200180831161067a57829003601f168201915b5050505050905090565b60006106ac82611335565b6106e2576040517fcf4700e400000000000000000000000000000000000000000000000000000000815260040160405180910390fd5b6006600083815260200190815260200160002060000160009054906101000a900473ffffffffffffffffffffffffffffffffffffffff169050919050565b600061072b82610d36565b90508073ffffffffffffffffffffffffffffffffffffffff1661074c611394565b73ffffffffffffffffffffffffffffffffffffffff16146107af5761077881610773611394565b61121e565b6107ae576040517fcfb3b94200000000000000000000000000000000000000000000000000000000815260040160405180910390fd5b5b826006600084815260200190815260200160002060000160006101000a81548173ffffffffffffffffffffffffffffffffffffffff021916908373ffffffffffffffffffffffffffffffffffffffff160217905550818373ffffffffffffffffffffffffffffffffffffffff168273ffffffffffffffffffffffffffffffffffffffff167f8c5be1e5ebec7d5bd14f71427d1e84f3dd0314c0f7b2291e5b200ac8c7c3b92560405160405180910390a4505050565b600061086e61139c565b6001546000540303905090565b6000610886826113a1565b90508373ffffffffffffffffffffffffffffffffffffffff168173ffffffffffffffffffffffffffffffffffffffff16146108ed576040517fa114810000000000000000000000000000000000000000000000000000000000815260040160405180910390fd5b6000806108f98461146d565b9150915061090f818761090a611394565b611494565b61095b576109248661091f611394565b61121e565b61095a576040517f59c896be00000000000000000000000000000000000000000000000000000000815260040160405180910390fd5b5b600073ffffffffffffffffffffffffffffffffffffffff168573ffffffffffffffffffffffffffffffffffffffff16036109c1576040517fea553b3400000000000000000000000000000000000000000000000000000000815260040160405180910390fd5b6109ce86868660016114d8565b80156109d957600082555b600560008773ffffffffffffffffffffffffffffffffffffffff1673ffffffffffffffffffffffffffffffffffffffff168152602001908152602001600020600081546001900391905081905550600560008673ffffffffffffffffffffffffffffffffffffffff1673ffffffffffffffffffffffffffffffffffffffff1681526020019081526020016000206000815460010191905081905550610aa785610a838888876114de565b7c020000000000000000000000000000000000000000000000000000000017611506565b600460008681526020019081526020016000208190555060007c0200000000000000000000000000000000000000000000000000000000841603610b2d5760006001850190506000600460008381526020019081526020016000205403610b2b576000548114610b2a578360046000838152602001908152602001600020819055505b5b505b838573ffffffffffffffffffffffffffffffffffffffff168773ffffffffffffffffffffffffffffffffffffffff167fddf252ad1be2c89b69c2b068fc378daa952ba7f163c4a11628f55a4df523b3ef60405160405180910390a4610b958686866001611531565b505050505050565b600c60009054906101000a900460ff16610be3576040517fa7e4d9bd00000000000000000000000000000000000000000000000000000000815260040160405180910390fd5b7f000000000000000000000000000000000000000000000000000000000000000081610c0d611537565b610c17919061205c565b1115610c4f576040517f846fb9e200000000000000000000000000000000000000000000000000000000815260040160405180910390fd5b3481600b54610c5e91906120b2565b1115610c96576040517f32b65fa400000000000000000000000000000000000000000000000000000000815260040160405180910390fd5b610ca0338261154a565b50565b610cab611705565b600a60009054906101000a900473ffffffffffffffffffffffffffffffffffffffff1673ffffffffffffffffffffffffffffffffffffffff166108fc479081150290604051600060405180830381858888f19350505050158015610d13573d6000803e3d6000fd5b50565b610d3183838360405180602001604052806000815250611094565b505050565b6000610d41826113a1565b9050919050565b60098054610d5590611ffc565b80601f0160208091040260200160405190810160405280929190818152602001828054610d8190611ffc565b8015610dce5780601f10610da357610100808354040283529160200191610dce565b820191906000526020600020905b815481529060010190602001808311610db157829003601f168201915b505050505081565b60008073ffffffffffffffffffffffffffffffffffffffff168273ffffffffffffffffffffffffffffffffffffffff1603610e3d576040517f8f4eb60400000000000000000000000000000000000000000000000000000000815260040160405180910390fd5b67ffffffffffffffff600560008473ffffffffffffffffffffffffffffffffffffffff1673ffffffffffffffffffffffffffffffffffffffff16815260200190815260200160002054169050919050565b610e96611705565b610ea06000611783565b565b600c60009054906101000a900460ff1681565b610ebd611705565b80600b8190555050565b6000600860009054906101000a900473ffffffffffffffffffffffffffffffffffffffff16905090565b606060038054610f0090611ffc565b80601f0160208091040260200160405190810160405280929190818152602001828054610f2c90611ffc565b8015610f795780601f10610f4e57610100808354040283529160200191610f79565b820191906000526020600020905b815481529060010190602001808311610f5c57829003601f168201915b5050505050905090565b600b5481565b8060076000610f96611394565b73ffffffffffffffffffffffffffffffffffffffff1673ffffffffffffffffffffffffffffffffffffffff16815260200190815260200160002060008473ffffffffffffffffffffffffffffffffffffffff1673ffffffffffffffffffffffffffffffffffffffff16815260200190815260200160002060006101000a81548160ff0219169083151502179055508173ffffffffffffffffffffffffffffffffffffffff16611043611394565b73ffffffffffffffffffffffffffffffffffffffff167f17307eab39ab6107e8899845ad3d59bd9653f200f220920489ca2b5937696c31836040516110889190611abe565b60405180910390a35050565b61109f84848461087b565b60008373ffffffffffffffffffffffffffffffffffffffff163b14611101576110ca84848484611849565b611100576040517fd1a57ed600000000000000000000000000000000000000000000000000000000815260040160405180910390fd5b5b50505050565b61110f611705565b600c60009054906101000a900460ff1615611161577f31049bf3bf355501468eae392a37a331d82c9afcb4426073a12b21f1d597fb8c60016040516111549190611abe565b60405180910390a161119a565b7f31049bf3bf355501468eae392a37a331d82c9afcb4426073a12b21f1d597fb8c60006040516111919190611abe565b60405180910390a15b600c60009054906101000a900460ff1615600c60006101000a81548160ff021916908315150217905550565b606060096111d383611999565b6040516020016111e49291906121e0565b6040516020818303038152906040529050919050565b7f000000000000000000000000000000000000000000000000000000000000000081565b6000600760008473ffffffffffffffffffffffffffffffffffffffff1673ffffffffffffffffffffffffffffffffffffffff16815260200190815260200160002060008373ffffffffffffffffffffffffffffffffffffffff1673ffffffffffffffffffffffffffffffffffffffff16815260200190815260200160002060009054906101000a900460ff16905092915050565b6112ba611705565b600073ffffffffffffffffffffffffffffffffffffffff168173ffffffffffffffffffffffffffffffffffffffff1603611329576040517f08c379a000000000000000000000000000000000000000000000000000000000815260040161132090612276565b60405180910390fd5b61133281611783565b50565b60008161134061139c565b1115801561134f575060005482105b801561138d575060007c0100000000000000000000000000000000000000000000000000000000600460008581526020019081526020016000205416145b9050919050565b600033905090565b600090565b600080829050806113b061139c565b11611436576000548110156114355760006004600083815260200190815260200160002054905060007c0100000000000000000000000000000000000000000000000000000000821603611433575b600081036114295760046000836001900393508381526020019081526020016000205490506113ff565b8092505050611468565b505b5b6040517fdf2d9b4200000000000000000000000000000000000000000000000000000000815260040160405180910390fd5b919050565b60008060006006600085815260200190815260200160002090508092508254915050915091565b600073ffffffffffffffffffffffffffffffffffffffff8316925073ffffffffffffffffffffffffffffffffffffffff821691508382148383141790509392505050565b50505050565b60008060e883901c905060e86114f58686846119e9565b62ffffff16901b9150509392505050565b600073ffffffffffffffffffffffffffffffffffffffff83169250814260a01b178317905092915050565b50505050565b600061154161139c565b60005403905090565b6000805490506000820361158a576040517fb562e8dd00000000000000000000000000000000000000000000000000000000815260040160405180910390fd5b61159760008483856114d8565b600160406001901b178202600560008573ffffffffffffffffffffffffffffffffffffffff1673ffffffffffffffffffffffffffffffffffffffff1681526020019081526020016000206000828254019250508190555061160e836115ff60008660006114de565b611608856119f2565b17611506565b6004600083815260200190815260200160002081905550600080838301905073ffffffffffffffffffffffffffffffffffffffff85169150828260007fddf252ad1be2c89b69c2b068fc378daa952ba7f163c4a11628f55a4df523b3ef600080a4600183015b8181146116af57808360007fddf252ad1be2c89b69c2b068fc378daa952ba7f163c4a11628f55a4df523b3ef600080a4600181019050611674565b50600082036116ea576040517f2e07630000000000000000000000000000000000000000000000000000000000815260040160405180910390fd5b8060008190555050506117006000848385611531565b505050565b61170d611a02565b73ffffffffffffffffffffffffffffffffffffffff1661172b610ec7565b73ffffffffffffffffffffffffffffffffffffffff1614611781576040517f08c379a0000000000000000000000000000000000000000000000000000000008152600401611778906122e2565b60405180910390fd5b565b6000600860009054906101000a900473ffffffffffffffffffffffffffffffffffffffff16905081600860006101000a81548173ffffffffffffffffffffffffffffffffffffffff021916908373ffffffffffffffffffffffffffffffffffffffff1602179055508173ffffffffffffffffffffffffffffffffffffffff168173ffffffffffffffffffffffffffffffffffffffff167f8be0079c531659141344cd1fd0a4f28419497f9722a3daafe3b4186f6b6457e060405160405180910390a35050565b60008373ffffffffffffffffffffffffffffffffffffffff1663150b7a0261186f611394565b8786866040518563ffffffff1660e01b81526004016118919493929190612357565b6020604051808303816000875af19250505080156118cd57506040513d601f19601f820116820180604052508101906118ca91906123b8565b60015b611946573d80600081146118fd576040519150601f19603f3d011682016040523d82523d6000602084013e611902565b606091505b50600081510361193e576040517fd1a57ed600000000000000000000000000000000000000000000000000000000815260040160405180910390fd5b805181602001fd5b63150b7a0260e01b7bffffffffffffffffffffffffffffffffffffffffffffffffffffffff1916817bffffffffffffffffffffffffffffffffffffffffffffffffffffffff191614915050949350505050565b606060a060405101806040526020810391506000825281835b6001156119d457600184039350600a81066030018453600a81049050806119b2575b50828103602084039350808452505050919050565b60009392505050565b60006001821460e11b9050919050565b600033905090565b6000604051905090565b600080fd5b600080fd5b60007fffffffff0000000000000000000000000000000000000000000000000000000082169050919050565b611a5381611a1e565b8114611a5e57600080fd5b50565b600081359050611a7081611a4a565b92915050565b600060208284031215611a8c57611a8b611a14565b5b6000611a9a84828501611a61565b91505092915050565b60008115159050919050565b611ab881611aa3565b82525050565b6000602082019050611ad36000830184611aaf565b92915050565b600081519050919050565b600082825260208201905092915050565b60005b83811015611b13578082015181840152602081019050611af8565b83811115611b22576000848401525b50505050565b6000601f19601f8301169050919050565b6000611b4482611ad9565b611b4e8185611ae4565b9350611b5e818560208601611af5565b611b6781611b28565b840191505092915050565b60006020820190508181036000830152611b8c8184611b39565b905092915050565b6000819050919050565b611ba781611b94565b8114611bb257600080fd5b50565b600081359050611bc481611b9e565b92915050565b600060208284031215611be057611bdf611a14565b5b6000611bee84828501611bb5565b91505092915050565b600073ffffffffffffffffffffffffffffffffffffffff82169050919050565b6000611c2282611bf7565b9050919050565b611c3281611c17565b82525050565b6000602082019050611c4d6000830184611c29565b92915050565b611c5c81611c17565b8114611c6757600080fd5b50565b600081359050611c7981611c53565b92915050565b60008060408385031215611c9657611c95611a14565b5b6000611ca485828601611c6a565b9250506020611cb585828601611bb5565b9150509250929050565b611cc881611b94565b82525050565b6000602082019050611ce36000830184611cbf565b92915050565b600080600060608486031215611d0257611d01611a14565b5b6000611d1086828701611c6a565b9350506020611d2186828701611c6a565b9250506040611d3286828701611bb5565b9150509250925092565b600060208284031215611d5257611d51611a14565b5b6000611d6084828501611c6a565b91505092915050565b611d7281611aa3565b8114611d7d57600080fd5b50565b600081359050611d8f81611d69565b92915050565b60008060408385031215611dac57611dab611a14565b5b6000611dba85828601611c6a565b9250506020611dcb85828601611d80565b9150509250929050565b600080fd5b600080fd5b7f4e487b7100000000000000000000000000000000000000000000000000000000600052604160045260246000fd5b611e1782611b28565b810181811067ffffffffffffffff82111715611e3657611e35611ddf565b5b80604052505050565b6000611e49611a0a565b9050611e558282611e0e565b919050565b600067ffffffffffffffff821115611e7557611e74611ddf565b5b611e7e82611b28565b9050602081019050919050565b82818337600083830152505050565b6000611ead611ea884611e5a565b611e3f565b905082815260208101848484011115611ec957611ec8611dda565b5b611ed4848285611e8b565b509392505050565b600082601f830112611ef157611ef0611dd5565b5b8135611f01848260208601611e9a565b91505092915050565b60008060008060808587031215611f2457611f23611a14565b5b6000611f3287828801611c6a565b9450506020611f4387828801611c6a565b9350506040611f5487828801611bb5565b925050606085013567ffffffffffffffff811115611f7557611f74611a19565b5b611f8187828801611edc565b91505092959194509250565b60008060408385031215611fa457611fa3611a14565b5b6000611fb285828601611c6a565b9250506020611fc385828601611c6a565b9150509250929050565b7f4e487b7100000000000000000000000000000000000000000000000000000000600052602260045260246000fd5b6000600282049050600182168061201457607f821691505b60208210810361202757612026611fcd565b5b50919050565b7f4e487b7100000000000000000000000000000000000000000000000000000000600052601160045260246000fd5b600061206782611b94565b915061207283611b94565b9250827fffffffffffffffffffffffffffffffffffffffffffffffffffffffffffffffff038211156120a7576120a661202d565b5b828201905092915050565b60006120bd82611b94565b91506120c883611b94565b9250817fffffffffffffffffffffffffffffffffffffffffffffffffffffffffffffffff04831182151516156121015761210061202d565b5b828202905092915050565b600081905092915050565b60008190508160005260206000209050919050565b6000815461213981611ffc565b612143818661210c565b9450600182166000811461215e5760018114612173576121a6565b60ff19831686528115158202860193506121a6565b61217c85612117565b60005b8381101561219e5781548189015260018201915060208101905061217f565b838801955050505b50505092915050565b60006121ba82611ad9565b6121c4818561210c565b93506121d4818560208601611af5565b80840191505092915050565b60006121ec828561212c565b91506121f882846121af565b91508190509392505050565b7f4f776e61626c653a206e6577206f776e657220697320746865207a65726f206160008201527f6464726573730000000000000000000000000000000000000000000000000000602082015250565b6000612260602683611ae4565b915061226b82612204565b604082019050919050565b6000602082019050818103600083015261228f81612253565b9050919050565b7f4f776e61626c653a2063616c6c6572206973206e6f7420746865206f776e6572600082015250565b60006122cc602083611ae4565b91506122d782612296565b602082019050919050565b600060208201905081810360008301526122fb816122bf565b9050919050565b600081519050919050565b600082825260208201905092915050565b600061232982612302565b612333818561230d565b9350612343818560208601611af5565b61234c81611b28565b840191505092915050565b600060808201905061236c6000830187611c29565b6123796020830186611c29565b6123866040830185611cbf565b8181036060830152612398818461231e565b905095945050505050565b6000815190506123b281611a4a565b92915050565b6000602082840312156123ce576123cd611a14565b5b60006123dc848285016123a3565b9150509291505056fea2646970667358221220cc270e4010fbed1e9c6a4b936e3fd3b89f60212ef992aa6bf82ea21599f3e8fc64736f6c634300080f0033",
  "linkReferences": {},
  "deployedLinkReferences": {}
}