{
  "_format": "hh-sol-artifact-1",
  "contractName": "NightmareOnEtherStreet",
  "sourceName": "contracts/NightmareOnEtherStreet.sol",
  "abi": [
    {
      "inputs": [],
      "stateMutability": "nonpayable",
      "type": "constructor"
    },
    {
      "inputs": [],
      "name": "ApprovalCallerNotOwnerNorApproved",
      "type": "error"
    },
    {
      "inputs": [],
      "name": "ApprovalQueryForNonexistentToken",
      "type": "error"
    },
    {
      "inputs": [],
      "name": "BalanceQueryForZeroAddress",
      "type": "error"
    },
    {
      "inputs": [],
      "name": "MintERC2309QuantityExceedsLimit",
      "type": "error"
    },
    {
      "inputs": [],
      "name": "MintToZeroAddress",
      "type": "error"
    },
    {
      "inputs": [],
      "name": "MintZeroQuantity",
      "type": "error"
    },
    {
      "inputs": [],
      "name": "MintingClosed",
      "type": "error"
    },
    {
      "inputs": [],
      "name": "OwnerQueryForNonexistentToken",
      "type": "error"
    },
    {
      "inputs": [],
      "name": "OwnershipNotInitializedForExtraData",
      "type": "error"
    },
    {
      "inputs": [],
      "name": "TransferCallerNotOwnerNorApproved",
      "type": "error"
    },
    {
      "inputs": [],
      "name": "TransferFromIncorrectOwner",
      "type": "error"
    },
    {
      "inputs": [],
      "name": "TransferToNonERC721ReceiverImplementer",
      "type": "error"
    },
    {
      "inputs": [],
      "name": "TransferToZeroAddress",
      "type": "error"
    },
    {
      "inputs": [],
      "name": "URIQueryForNonexistentToken",
      "type": "error"
    },
    {
      "anonymous": false,
      "inputs": [
        {
          "indexed": true,
          "internalType": "address",
          "name": "owner",
          "type": "address"
        },
        {
          "indexed": true,
          "internalType": "address",
          "name": "approved",
          "type": "address"
        },
        {
          "indexed": true,
          "internalType": "uint256",
          "name": "tokenId",
          "type": "uint256"
        }
      ],
      "name": "Approval",
      "type": "event"
    },
    {
      "anonymous": false,
      "inputs": [
        {
          "indexed": true,
          "internalType": "address",
          "name": "owner",
          "type": "address"
        },
        {
          "indexed": true,
          "internalType": "address",
          "name": "operator",
          "type": "address"
        },
        {
          "indexed": false,
          "internalType": "bool",
          "name": "approved",
          "type": "bool"
        }
      ],
      "name": "ApprovalForAll",
      "type": "event"
    },
    {
      "anonymous": false,
      "inputs": [
        {
          "indexed": true,
          "internalType": "uint256",
          "name": "fromTokenId",
          "type": "uint256"
        },
        {
          "indexed": false,
          "internalType": "uint256",
          "name": "toTokenId",
          "type": "uint256"
        },
        {
          "indexed": true,
          "internalType": "address",
          "name": "from",
          "type": "address"
        },
        {
          "indexed": true,
          "internalType": "address",
          "name": "to",
          "type": "address"
        }
      ],
      "name": "ConsecutiveTransfer",
      "type": "event"
    },
    {
      "anonymous": false,
      "inputs": [
        {
          "indexed": true,
          "internalType": "address",
          "name": "previousOwner",
          "type": "address"
        },
        {
          "indexed": true,
          "internalType": "address",
          "name": "newOwner",
          "type": "address"
        }
      ],
      "name": "OwnershipTransferred",
      "type": "event"
    },
    {
      "anonymous": false,
      "inputs": [
        {
          "indexed": true,
          "internalType": "address",
          "name": "from",
          "type": "address"
        },
        {
          "indexed": true,
          "internalType": "address",
          "name": "to",
          "type": "address"
        },
        {
          "indexed": true,
          "internalType": "uint256",
          "name": "tokenId",
          "type": "uint256"
        }
      ],
      "name": "Transfer",
      "type": "event"
    },
    {
      "anonymous": false,
      "inputs": [
        {
          "indexed": false,
          "internalType": "bool",
          "name": "",
          "type": "bool"
        }
      ],
      "name": "statusChange",
      "type": "event"
    },
    {
      "inputs": [
        {
          "internalType": "address",
          "name": "to",
          "type": "address"
        },
        {
          "internalType": "uint256",
          "name": "tokenId",
          "type": "uint256"
        }
      ],
      "name": "approve",
      "outputs": [],
      "stateMutability": "payable",
      "type": "function"
    },
    {
      "inputs": [
        {
          "internalType": "address",
          "name": "owner",
          "type": "address"
        }
      ],
      "name": "balanceOf",
      "outputs": [
        {
          "internalType": "uint256",
          "name": "",
          "type": "uint256"
        }
      ],
      "stateMutability": "view",
      "type": "function"
    },
    {
      "inputs": [
        {
          "internalType": "uint256",
          "name": "tokenId",
          "type": "uint256"
        }
      ],
      "name": "getApproved",
      "outputs": [
        {
          "internalType": "address",
          "name": "",
          "type": "address"
        }
      ],
      "stateMutability": "view",
      "type": "function"
    },
    {
      "inputs": [
        {
          "internalType": "address",
          "name": "owner",
          "type": "address"
        },
        {
          "internalType": "address",
          "name": "operator",
          "type": "address"
        }
      ],
      "name": "isApprovedForAll",
      "outputs": [
        {
          "internalType": "bool",
          "name": "",
          "type": "bool"
        }
      ],
      "stateMutability": "view",
      "type": "function"
    },
    {
      "inputs": [
        {
          "internalType": "uint256",
          "name": "quantity",
          "type": "uint256"
        }
      ],
      "name": "mint",
      "outputs": [],
      "stateMutability": "payable",
      "type": "function"
    },
    {
      "inputs": [],
      "name": "mintOpen",
      "outputs": [
        {
          "internalType": "bool",
          "name": "",
          "type": "bool"
        }
      ],
      "stateMutability": "view",
      "type": "function"
    },
    {
      "inputs": [],
      "name": "mintPrice",
      "outputs": [
        {
          "internalType": "uint256",
          "name": "",
          "type": "uint256"
        }
      ],
      "stateMutability": "view",
      "type": "function"
    },
    {
      "inputs": [],
      "name": "name",
      "outputs": [
        {
          "internalType": "string",
          "name": "",
          "type": "string"
        }
      ],
      "stateMutability": "view",
      "type": "function"
    },
    {
      "inputs": [],
      "name": "owner",
      "outputs": [
        {
          "internalType": "address",
          "name": "",
          "type": "address"
        }
      ],
      "stateMutability": "view",
      "type": "function"
    },
    {
      "inputs": [
        {
          "internalType": "uint256",
          "name": "tokenId",
          "type": "uint256"
        }
      ],
      "name": "ownerOf",
      "outputs": [
        {
          "internalType": "address",
          "name": "",
          "type": "address"
        }
      ],
      "stateMutability": "view",
      "type": "function"
    },
    {
      "inputs": [],
      "name": "renounceOwnership",
      "outputs": [],
      "stateMutability": "nonpayable",
      "type": "function"
    },
    {
      "inputs": [
        {
          "internalType": "address",
          "name": "from",
          "type": "address"
        },
        {
          "internalType": "address",
          "name": "to",
          "type": "address"
        },
        {
          "internalType": "uint256",
          "name": "tokenId",
          "type": "uint256"
        }
      ],
      "name": "safeTransferFrom",
      "outputs": [],
      "stateMutability": "payable",
      "type": "function"
    },
    {
      "inputs": [
        {
          "internalType": "address",
          "name": "from",
          "type": "address"
        },
        {
          "internalType": "address",
          "name": "to",
          "type": "address"
        },
        {
          "internalType": "uint256",
          "name": "tokenId",
          "type": "uint256"
        },
        {
          "internalType": "bytes",
          "name": "_data",
          "type": "bytes"
        }
      ],
      "name": "safeTransferFrom",
      "outputs": [],
      "stateMutability": "payable",
      "type": "function"
    },
    {
      "inputs": [
        {
          "internalType": "address",
          "name": "operator",
          "type": "address"
        },
        {
          "internalType": "bool",
          "name": "approved",
          "type": "bool"
        }
      ],
      "name": "setApprovalForAll",
      "outputs": [],
      "stateMutability": "nonpayable",
      "type": "function"
    },
    {
      "inputs": [
        {
          "internalType": "bytes4",
          "name": "interfaceId",
          "type": "bytes4"
        }
      ],
      "name": "supportsInterface",
      "outputs": [
        {
          "internalType": "bool",
          "name": "",
          "type": "bool"
        }
      ],
      "stateMutability": "view",
      "type": "function"
    },
    {
      "inputs": [],
      "name": "symbol",
      "outputs": [
        {
          "internalType": "string",
          "name": "",
          "type": "string"
        }
      ],
      "stateMutability": "view",
      "type": "function"
    },
    {
      "inputs": [],
      "name": "toggleMintOpen",
      "outputs": [],
      "stateMutability": "nonpayable",
      "type": "function"
    },
    {
      "inputs": [
        {
          "internalType": "uint256",
          "name": "tokenId",
          "type": "uint256"
        }
      ],
      "name": "tokenURI",
      "outputs": [
        {
          "internalType": "string",
          "name": "",
          "type": "string"
        }
      ],
      "stateMutability": "view",
      "type": "function"
    },
    {
      "inputs": [],
      "name": "totalSupply",
      "outputs": [
        {
          "internalType": "uint256",
          "name": "",
          "type": "uint256"
        }
      ],
      "stateMutability": "view",
      "type": "function"
    },
    {
      "inputs": [
        {
          "internalType": "address",
          "name": "from",
          "type": "address"
        },
        {
          "internalType": "address",
          "name": "to",
          "type": "address"
        },
        {
          "internalType": "uint256",
          "name": "tokenId",
          "type": "uint256"
        }
      ],
      "name": "transferFrom",
      "outputs": [],
      "stateMutability": "payable",
      "type": "function"
    },
    {
      "inputs": [
        {
          "internalType": "address",
          "name": "newOwner",
          "type": "address"
        }
      ],
      "name": "transferOwnership",
      "outputs": [],
      "stateMutability": "nonpayable",
      "type": "function"
    }
  ],
  "bytecode": "0x6080604052661550f7dca700006009553480156200001c57600080fd5b506040518060400160405280601981526020017f4e696768746d617265204f6e20457468657220537472656574000000000000008152506040518060400160405280600481526020017f4e4f45530000000000000000000000000000000000000000000000000000000081525081600290816200009a919062000453565b508060039081620000ac919062000453565b50620000bd6200010660201b60201c565b6000819055505050620000e5620000d96200010b60201b60201c565b6200011360201b60201c565b6000600860146101000a81548160ff0219169083151502179055506200053a565b600090565b600033905090565b6000600860009054906101000a900473ffffffffffffffffffffffffffffffffffffffff16905081600860006101000a81548173ffffffffffffffffffffffffffffffffffffffff021916908373ffffffffffffffffffffffffffffffffffffffff1602179055508173ffffffffffffffffffffffffffffffffffffffff168173ffffffffffffffffffffffffffffffffffffffff167f8be0079c531659141344cd1fd0a4f28419497f9722a3daafe3b4186f6b6457e060405160405180910390a35050565b600081519050919050565b7f4e487b7100000000000000000000000000000000000000000000000000000000600052604160045260246000fd5b7f4e487b7100000000000000000000000000000000000000000000000000000000600052602260045260246000fd5b600060028204905060018216806200025b57607f821691505b60208210810362000271576200027062000213565b5b50919050565b60008190508160005260206000209050919050565b60006020601f8301049050919050565b600082821b905092915050565b600060088302620002db7fffffffffffffffffffffffffffffffffffffffffffffffffffffffffffffffff826200029c565b620002e786836200029c565b95508019841693508086168417925050509392505050565b6000819050919050565b6000819050919050565b6000620003346200032e6200032884620002ff565b62000309565b620002ff565b9050919050565b6000819050919050565b620003508362000313565b620003686200035f826200033b565b848454620002a9565b825550505050565b600090565b6200037f62000370565b6200038c81848462000345565b505050565b5b81811015620003b457620003a860008262000375565b60018101905062000392565b5050565b601f8211156200040357620003cd8162000277565b620003d8846200028c565b81016020851015620003e8578190505b62000400620003f7856200028c565b83018262000391565b50505b505050565b600082821c905092915050565b6000620004286000198460080262000408565b1980831691505092915050565b600062000443838362000415565b9150826002028217905092915050565b6200045e82620001d9565b67ffffffffffffffff8111156200047a5762000479620001e4565b5b62000486825462000242565b62000493828285620003b8565b600060209050601f831160018114620004cb5760008415620004b6578287015190505b620004c2858262000435565b86555062000532565b601f198416620004db8662000277565b60005b828110156200050557848901518255600182019150602085019450602081019050620004de565b8683101562000525578489015162000521601f89168262000415565b8355505b6001600288020188555050505b505050505050565b612056806200054a6000396000f3fe60806040526004361061012a5760003560e01c80636817c76c116100ab578063a0712d681161006f578063a0712d68146103a7578063a22cb465146103c3578063b88d4fde146103ec578063c87b56dd14610408578063e985e9c514610445578063f2fde38b146104825761012a565b80636817c76c146102d257806370a08231146102fd578063715018a61461033a5780638da5cb5b1461035157806395d89b411461037c5761012a565b806323b872dd116100f257806323b872dd1461021b57806324bbd0491461023757806342842e0e146102625780636352211e1461027e57806367986daf146102bb5761012a565b806301ffc9a71461012f57806306fdde031461016c578063081812fc14610197578063095ea7b3146101d457806318160ddd146101f0575b600080fd5b34801561013b57600080fd5b5061015660048036038101906101519190611828565b6104ab565b6040516101639190611870565b60405180910390f35b34801561017857600080fd5b5061018161053d565b60405161018e9190611924565b60405180910390f35b3480156101a357600080fd5b506101be60048036038101906101b9919061197c565b6105cf565b6040516101cb91906119ea565b60405180910390f35b6101ee60048036038101906101e99190611a31565b61064e565b005b3480156101fc57600080fd5b50610205610792565b6040516102129190611a80565b60405180910390f35b61023560048036038101906102309190611a9b565b6107a9565b005b34801561024357600080fd5b5061024c610acb565b6040516102599190611870565b60405180910390f35b61027c60048036038101906102779190611a9b565b610ade565b005b34801561028a57600080fd5b506102a560048036038101906102a0919061197c565b610afe565b6040516102b291906119ea565b60405180910390f35b3480156102c757600080fd5b506102d0610b10565b005b3480156102de57600080fd5b506102e7610bcf565b6040516102f49190611a80565b60405180910390f35b34801561030957600080fd5b50610324600480360381019061031f9190611aee565b610bd5565b6040516103319190611a80565b60405180910390f35b34801561034657600080fd5b5061034f610c8d565b005b34801561035d57600080fd5b50610366610ca1565b60405161037391906119ea565b60405180910390f35b34801561038857600080fd5b50610391610ccb565b60405161039e9190611924565b60405180910390f35b6103c160048036038101906103bc919061197c565b610d5d565b005b3480156103cf57600080fd5b506103ea60048036038101906103e59190611b47565b610db0565b005b61040660048036038101906104019190611cbc565b610ebb565b005b34801561041457600080fd5b5061042f600480360381019061042a919061197c565b610f2e565b60405161043c9190611924565b60405180910390f35b34801561045157600080fd5b5061046c60048036038101906104679190611d3f565b610fcc565b6040516104799190611870565b60405180910390f35b34801561048e57600080fd5b506104a960048036038101906104a49190611aee565b611060565b005b60006301ffc9a760e01b827bffffffffffffffffffffffffffffffffffffffffffffffffffffffff1916148061050657506380ac58cd60e01b827bffffffffffffffffffffffffffffffffffffffffffffffffffffffff1916145b806105365750635b5e139f60e01b827bffffffffffffffffffffffffffffffffffffffffffffffffffffffff1916145b9050919050565b60606002805461054c90611dae565b80601f016020809104026020016040519081016040528092919081815260200182805461057890611dae565b80156105c55780601f1061059a576101008083540402835291602001916105c5565b820191906000526020600020905b8154815290600101906020018083116105a857829003601f168201915b5050505050905090565b60006105da826110e3565b610610576040517fcf4700e400000000000000000000000000000000000000000000000000000000815260040160405180910390fd5b6006600083815260200190815260200160002060000160009054906101000a900473ffffffffffffffffffffffffffffffffffffffff169050919050565b600061065982610afe565b90508073ffffffffffffffffffffffffffffffffffffffff1661067a611142565b73ffffffffffffffffffffffffffffffffffffffff16146106dd576106a6816106a1611142565b610fcc565b6106dc576040517fcfb3b94200000000000000000000000000000000000000000000000000000000815260040160405180910390fd5b5b826006600084815260200190815260200160002060000160006101000a81548173ffffffffffffffffffffffffffffffffffffffff021916908373ffffffffffffffffffffffffffffffffffffffff160217905550818373ffffffffffffffffffffffffffffffffffffffff168273ffffffffffffffffffffffffffffffffffffffff167f8c5be1e5ebec7d5bd14f71427d1e84f3dd0314c0f7b2291e5b200ac8c7c3b92560405160405180910390a4505050565b600061079c61114a565b6001546000540303905090565b60006107b48261114f565b90508373ffffffffffffffffffffffffffffffffffffffff168173ffffffffffffffffffffffffffffffffffffffff161461081b576040517fa114810000000000000000000000000000000000000000000000000000000000815260040160405180910390fd5b6000806108278461121b565b9150915061083d8187610838611142565b611242565b610889576108528661084d611142565b610fcc565b610888576040517f59c896be00000000000000000000000000000000000000000000000000000000815260040160405180910390fd5b5b600073ffffffffffffffffffffffffffffffffffffffff168573ffffffffffffffffffffffffffffffffffffffff16036108ef576040517fea553b3400000000000000000000000000000000000000000000000000000000815260040160405180910390fd5b6108fc8686866001611286565b801561090757600082555b600560008773ffffffffffffffffffffffffffffffffffffffff1673ffffffffffffffffffffffffffffffffffffffff168152602001908152602001600020600081546001900391905081905550600560008673ffffffffffffffffffffffffffffffffffffffff1673ffffffffffffffffffffffffffffffffffffffff16815260200190815260200160002060008154600101919050819055506109d5856109b188888761128c565b7c0200000000000000000000000000000000000000000000000000000000176112b4565b600460008681526020019081526020016000208190555060007c0200000000000000000000000000000000000000000000000000000000841603610a5b5760006001850190506000600460008381526020019081526020016000205403610a59576000548114610a58578360046000838152602001908152602001600020819055505b5b505b838573ffffffffffffffffffffffffffffffffffffffff168773ffffffffffffffffffffffffffffffffffffffff167fddf252ad1be2c89b69c2b068fc378daa952ba7f163c4a11628f55a4df523b3ef60405160405180910390a4610ac386868660016112df565b505050505050565b600860149054906101000a900460ff1681565b610af983838360405180602001604052806000815250610ebb565b505050565b6000610b098261114f565b9050919050565b610b186112e5565b600860149054906101000a900460ff1615610b6a577f715313ec2dda499b3a5e457c9efc668e5267f2e046178cff3f4d8e2b4d2757f56001604051610b5d9190611870565b60405180910390a1610ba3565b7f715313ec2dda499b3a5e457c9efc668e5267f2e046178cff3f4d8e2b4d2757f56000604051610b9a9190611870565b60405180910390a15b600860149054906101000a900460ff1615600860146101000a81548160ff021916908315150217905550565b60095481565b60008073ffffffffffffffffffffffffffffffffffffffff168273ffffffffffffffffffffffffffffffffffffffff1603610c3c576040517f8f4eb60400000000000000000000000000000000000000000000000000000000815260040160405180910390fd5b67ffffffffffffffff600560008473ffffffffffffffffffffffffffffffffffffffff1673ffffffffffffffffffffffffffffffffffffffff16815260200190815260200160002054169050919050565b610c956112e5565b610c9f6000611363565b565b6000600860009054906101000a900473ffffffffffffffffffffffffffffffffffffffff16905090565b606060038054610cda90611dae565b80601f0160208091040260200160405190810160405280929190818152602001828054610d0690611dae565b8015610d535780601f10610d2857610100808354040283529160200191610d53565b820191906000526020600020905b815481529060010190602001808311610d3657829003601f168201915b5050505050905090565b600860149054906101000a900460ff16610da3576040517fa7e4d9bd00000000000000000000000000000000000000000000000000000000815260040160405180910390fd5b610dad3382611429565b50565b8060076000610dbd611142565b73ffffffffffffffffffffffffffffffffffffffff1673ffffffffffffffffffffffffffffffffffffffff16815260200190815260200160002060008473ffffffffffffffffffffffffffffffffffffffff1673ffffffffffffffffffffffffffffffffffffffff16815260200190815260200160002060006101000a81548160ff0219169083151502179055508173ffffffffffffffffffffffffffffffffffffffff16610e6a611142565b73ffffffffffffffffffffffffffffffffffffffff167f17307eab39ab6107e8899845ad3d59bd9653f200f220920489ca2b5937696c3183604051610eaf9190611870565b60405180910390a35050565b610ec68484846107a9565b60008373ffffffffffffffffffffffffffffffffffffffff163b14610f2857610ef1848484846115e4565b610f27576040517fd1a57ed600000000000000000000000000000000000000000000000000000000815260040160405180910390fd5b5b50505050565b6060610f39826110e3565b610f6f576040517fa14c4b5000000000000000000000000000000000000000000000000000000000815260040160405180910390fd5b6000610f79611734565b90506000815103610f995760405180602001604052806000815250610fc4565b80610fa38461174b565b604051602001610fb4929190611e1b565b6040516020818303038152906040525b915050919050565b6000600760008473ffffffffffffffffffffffffffffffffffffffff1673ffffffffffffffffffffffffffffffffffffffff16815260200190815260200160002060008373ffffffffffffffffffffffffffffffffffffffff1673ffffffffffffffffffffffffffffffffffffffff16815260200190815260200160002060009054906101000a900460ff16905092915050565b6110686112e5565b600073ffffffffffffffffffffffffffffffffffffffff168173ffffffffffffffffffffffffffffffffffffffff16036110d7576040517f08c379a00000000000000000000000000000000000000000000000000000000081526004016110ce90611eb1565b60405180910390fd5b6110e081611363565b50565b6000816110ee61114a565b111580156110fd575060005482105b801561113b575060007c0100000000000000000000000000000000000000000000000000000000600460008581526020019081526020016000205416145b9050919050565b600033905090565b600090565b6000808290508061115e61114a565b116111e4576000548110156111e35760006004600083815260200190815260200160002054905060007c01000000000000000000000000000000000000000000000000000000008216036111e1575b600081036111d75760046000836001900393508381526020019081526020016000205490506111ad565b8092505050611216565b505b5b6040517fdf2d9b4200000000000000000000000000000000000000000000000000000000815260040160405180910390fd5b919050565b60008060006006600085815260200190815260200160002090508092508254915050915091565b600073ffffffffffffffffffffffffffffffffffffffff8316925073ffffffffffffffffffffffffffffffffffffffff821691508382148383141790509392505050565b50505050565b60008060e883901c905060e86112a386868461179b565b62ffffff16901b9150509392505050565b600073ffffffffffffffffffffffffffffffffffffffff83169250814260a01b178317905092915050565b50505050565b6112ed6117a4565b73ffffffffffffffffffffffffffffffffffffffff1661130b610ca1565b73ffffffffffffffffffffffffffffffffffffffff1614611361576040517f08c379a000000000000000000000000000000000000000000000000000000000815260040161135890611f1d565b60405180910390fd5b565b6000600860009054906101000a900473ffffffffffffffffffffffffffffffffffffffff16905081600860006101000a81548173ffffffffffffffffffffffffffffffffffffffff021916908373ffffffffffffffffffffffffffffffffffffffff1602179055508173ffffffffffffffffffffffffffffffffffffffff168173ffffffffffffffffffffffffffffffffffffffff167f8be0079c531659141344cd1fd0a4f28419497f9722a3daafe3b4186f6b6457e060405160405180910390a35050565b60008054905060008203611469576040517fb562e8dd00000000000000000000000000000000000000000000000000000000815260040160405180910390fd5b6114766000848385611286565b600160406001901b178202600560008573ffffffffffffffffffffffffffffffffffffffff1673ffffffffffffffffffffffffffffffffffffffff168152602001908152602001600020600082825401925050819055506114ed836114de600086600061128c565b6114e7856117ac565b176112b4565b6004600083815260200190815260200160002081905550600080838301905073ffffffffffffffffffffffffffffffffffffffff85169150828260007fddf252ad1be2c89b69c2b068fc378daa952ba7f163c4a11628f55a4df523b3ef600080a4600183015b81811461158e57808360007fddf252ad1be2c89b69c2b068fc378daa952ba7f163c4a11628f55a4df523b3ef600080a4600181019050611553565b50600082036115c9576040517f2e07630000000000000000000000000000000000000000000000000000000000815260040160405180910390fd5b8060008190555050506115df60008483856112df565b505050565b60008373ffffffffffffffffffffffffffffffffffffffff1663150b7a0261160a611142565b8786866040518563ffffffff1660e01b815260040161162c9493929190611f92565b6020604051808303816000875af192505050801561166857506040513d601f19601f820116820180604052508101906116659190611ff3565b60015b6116e1573d8060008114611698576040519150601f19603f3d011682016040523d82523d6000602084013e61169d565b606091505b5060008151036116d9576040517fd1a57ed600000000000000000000000000000000000000000000000000000000815260040160405180910390fd5b805181602001fd5b63150b7a0260e01b7bffffffffffffffffffffffffffffffffffffffffffffffffffffffff1916817bffffffffffffffffffffffffffffffffffffffffffffffffffffffff191614915050949350505050565b606060405180602001604052806000815250905090565b606060a060405101806040526020810391506000825281835b60011561178657600184039350600a81066030018453600a8104905080611764575b50828103602084039350808452505050919050565b60009392505050565b600033905090565b60006001821460e11b9050919050565b6000604051905090565b600080fd5b600080fd5b60007fffffffff0000000000000000000000000000000000000000000000000000000082169050919050565b611805816117d0565b811461181057600080fd5b50565b600081359050611822816117fc565b92915050565b60006020828403121561183e5761183d6117c6565b5b600061184c84828501611813565b91505092915050565b60008115159050919050565b61186a81611855565b82525050565b60006020820190506118856000830184611861565b92915050565b600081519050919050565b600082825260208201905092915050565b60005b838110156118c55780820151818401526020810190506118aa565b838111156118d4576000848401525b50505050565b6000601f19601f8301169050919050565b60006118f68261188b565b6119008185611896565b93506119108185602086016118a7565b611919816118da565b840191505092915050565b6000602082019050818103600083015261193e81846118eb565b905092915050565b6000819050919050565b61195981611946565b811461196457600080fd5b50565b60008135905061197681611950565b92915050565b600060208284031215611992576119916117c6565b5b60006119a084828501611967565b91505092915050565b600073ffffffffffffffffffffffffffffffffffffffff82169050919050565b60006119d4826119a9565b9050919050565b6119e4816119c9565b82525050565b60006020820190506119ff60008301846119db565b92915050565b611a0e816119c9565b8114611a1957600080fd5b50565b600081359050611a2b81611a05565b92915050565b60008060408385031215611a4857611a476117c6565b5b6000611a5685828601611a1c565b9250506020611a6785828601611967565b9150509250929050565b611a7a81611946565b82525050565b6000602082019050611a956000830184611a71565b92915050565b600080600060608486031215611ab457611ab36117c6565b5b6000611ac286828701611a1c565b9350506020611ad386828701611a1c565b9250506040611ae486828701611967565b9150509250925092565b600060208284031215611b0457611b036117c6565b5b6000611b1284828501611a1c565b91505092915050565b611b2481611855565b8114611b2f57600080fd5b50565b600081359050611b4181611b1b565b92915050565b60008060408385031215611b5e57611b5d6117c6565b5b6000611b6c85828601611a1c565b9250506020611b7d85828601611b32565b9150509250929050565b600080fd5b600080fd5b7f4e487b7100000000000000000000000000000000000000000000000000000000600052604160045260246000fd5b611bc9826118da565b810181811067ffffffffffffffff82111715611be857611be7611b91565b5b80604052505050565b6000611bfb6117bc565b9050611c078282611bc0565b919050565b600067ffffffffffffffff821115611c2757611c26611b91565b5b611c30826118da565b9050602081019050919050565b82818337600083830152505050565b6000611c5f611c5a84611c0c565b611bf1565b905082815260208101848484011115611c7b57611c7a611b8c565b5b611c86848285611c3d565b509392505050565b600082601f830112611ca357611ca2611b87565b5b8135611cb3848260208601611c4c565b91505092915050565b60008060008060808587031215611cd657611cd56117c6565b5b6000611ce487828801611a1c565b9450506020611cf587828801611a1c565b9350506040611d0687828801611967565b925050606085013567ffffffffffffffff811115611d2757611d266117cb565b5b611d3387828801611c8e565b91505092959194509250565b60008060408385031215611d5657611d556117c6565b5b6000611d6485828601611a1c565b9250506020611d7585828601611a1c565b9150509250929050565b7f4e487b7100000000000000000000000000000000000000000000000000000000600052602260045260246000fd5b60006002820490506001821680611dc657607f821691505b602082108103611dd957611dd8611d7f565b5b50919050565b600081905092915050565b6000611df58261188b565b611dff8185611ddf565b9350611e0f8185602086016118a7565b80840191505092915050565b6000611e278285611dea565b9150611e338284611dea565b91508190509392505050565b7f4f776e61626c653a206e6577206f776e657220697320746865207a65726f206160008201527f6464726573730000000000000000000000000000000000000000000000000000602082015250565b6000611e9b602683611896565b9150611ea682611e3f565b604082019050919050565b60006020820190508181036000830152611eca81611e8e565b9050919050565b7f4f776e61626c653a2063616c6c6572206973206e6f7420746865206f776e6572600082015250565b6000611f07602083611896565b9150611f1282611ed1565b602082019050919050565b60006020820190508181036000830152611f3681611efa565b9050919050565b600081519050919050565b600082825260208201905092915050565b6000611f6482611f3d565b611f6e8185611f48565b9350611f7e8185602086016118a7565b611f87816118da565b840191505092915050565b6000608082019050611fa760008301876119db565b611fb460208301866119db565b611fc16040830185611a71565b8181036060830152611fd38184611f59565b905095945050505050565b600081519050611fed816117fc565b92915050565b600060208284031215612009576120086117c6565b5b600061201784828501611fde565b9150509291505056fea26469706673582212205c65c99977f79bcffd215645bc4c39b37050a8d575c7746c2e3bc82a5d7b997a64736f6c634300080f0033",
  "linkReferences": {},
  "deployedLinkReferences": {}
}