{
  "_format": "hh-sol-artifact-1",
  "contractName": "NightmareOnEtherStreet",
  "sourceName": "contracts/NightmareOnEtherStreet.sol",
  "abi": [
    {
      "inputs": [],
      "stateMutability": "nonpayable",
      "type": "constructor"
    },
    {
      "inputs": [],
      "name": "ApprovalCallerNotOwnerNorApproved",
      "type": "error"
    },
    {
      "inputs": [],
      "name": "ApprovalQueryForNonexistentToken",
      "type": "error"
    },
    {
      "inputs": [],
      "name": "BalanceQueryForZeroAddress",
      "type": "error"
    },
    {
      "inputs": [],
      "name": "MintERC2309QuantityExceedsLimit",
      "type": "error"
    },
    {
      "inputs": [],
      "name": "MintToZeroAddress",
      "type": "error"
    },
    {
      "inputs": [],
      "name": "MintZeroQuantity",
      "type": "error"
    },
    {
      "inputs": [],
      "name": "MintedOut",
      "type": "error"
    },
    {
      "inputs": [],
      "name": "MintingClosed",
      "type": "error"
    },
    {
      "inputs": [],
      "name": "OwnerQueryForNonexistentToken",
      "type": "error"
    },
    {
      "inputs": [],
      "name": "OwnershipNotInitializedForExtraData",
      "type": "error"
    },
    {
      "inputs": [],
      "name": "TransferCallerNotOwnerNorApproved",
      "type": "error"
    },
    {
      "inputs": [],
      "name": "TransferFromIncorrectOwner",
      "type": "error"
    },
    {
      "inputs": [],
      "name": "TransferToNonERC721ReceiverImplementer",
      "type": "error"
    },
    {
      "inputs": [],
      "name": "TransferToZeroAddress",
      "type": "error"
    },
    {
      "inputs": [],
      "name": "URIQueryForNonexistentToken",
      "type": "error"
    },
    {
      "anonymous": false,
      "inputs": [
        {
          "indexed": true,
          "internalType": "address",
          "name": "owner",
          "type": "address"
        },
        {
          "indexed": true,
          "internalType": "address",
          "name": "approved",
          "type": "address"
        },
        {
          "indexed": true,
          "internalType": "uint256",
          "name": "tokenId",
          "type": "uint256"
        }
      ],
      "name": "Approval",
      "type": "event"
    },
    {
      "anonymous": false,
      "inputs": [
        {
          "indexed": true,
          "internalType": "address",
          "name": "owner",
          "type": "address"
        },
        {
          "indexed": true,
          "internalType": "address",
          "name": "operator",
          "type": "address"
        },
        {
          "indexed": false,
          "internalType": "bool",
          "name": "approved",
          "type": "bool"
        }
      ],
      "name": "ApprovalForAll",
      "type": "event"
    },
    {
      "anonymous": false,
      "inputs": [
        {
          "indexed": true,
          "internalType": "uint256",
          "name": "fromTokenId",
          "type": "uint256"
        },
        {
          "indexed": false,
          "internalType": "uint256",
          "name": "toTokenId",
          "type": "uint256"
        },
        {
          "indexed": true,
          "internalType": "address",
          "name": "from",
          "type": "address"
        },
        {
          "indexed": true,
          "internalType": "address",
          "name": "to",
          "type": "address"
        }
      ],
      "name": "ConsecutiveTransfer",
      "type": "event"
    },
    {
      "anonymous": false,
      "inputs": [
        {
          "indexed": true,
          "internalType": "address",
          "name": "previousOwner",
          "type": "address"
        },
        {
          "indexed": true,
          "internalType": "address",
          "name": "newOwner",
          "type": "address"
        }
      ],
      "name": "OwnershipTransferred",
      "type": "event"
    },
    {
      "anonymous": false,
      "inputs": [
        {
          "indexed": true,
          "internalType": "address",
          "name": "from",
          "type": "address"
        },
        {
          "indexed": true,
          "internalType": "address",
          "name": "to",
          "type": "address"
        },
        {
          "indexed": true,
          "internalType": "uint256",
          "name": "tokenId",
          "type": "uint256"
        }
      ],
      "name": "Transfer",
      "type": "event"
    },
    {
      "anonymous": false,
      "inputs": [
        {
          "indexed": false,
          "internalType": "bool",
          "name": "",
          "type": "bool"
        }
      ],
      "name": "statusChange",
      "type": "event"
    },
    {
      "inputs": [
        {
          "internalType": "address",
          "name": "to",
          "type": "address"
        },
        {
          "internalType": "uint256",
          "name": "tokenId",
          "type": "uint256"
        }
      ],
      "name": "approve",
      "outputs": [],
      "stateMutability": "payable",
      "type": "function"
    },
    {
      "inputs": [
        {
          "internalType": "address",
          "name": "owner",
          "type": "address"
        }
      ],
      "name": "balanceOf",
      "outputs": [
        {
          "internalType": "uint256",
          "name": "",
          "type": "uint256"
        }
      ],
      "stateMutability": "view",
      "type": "function"
    },
    {
      "inputs": [
        {
          "internalType": "uint256",
          "name": "tokenId",
          "type": "uint256"
        }
      ],
      "name": "getApproved",
      "outputs": [
        {
          "internalType": "address",
          "name": "",
          "type": "address"
        }
      ],
      "stateMutability": "view",
      "type": "function"
    },
    {
      "inputs": [
        {
          "internalType": "address",
          "name": "owner",
          "type": "address"
        },
        {
          "internalType": "address",
          "name": "operator",
          "type": "address"
        }
      ],
      "name": "isApprovedForAll",
      "outputs": [
        {
          "internalType": "bool",
          "name": "",
          "type": "bool"
        }
      ],
      "stateMutability": "view",
      "type": "function"
    },
    {
      "inputs": [],
      "name": "maxSupply",
      "outputs": [
        {
          "internalType": "uint256",
          "name": "",
          "type": "uint256"
        }
      ],
      "stateMutability": "view",
      "type": "function"
    },
    {
      "inputs": [
        {
          "internalType": "uint256",
          "name": "quantity",
          "type": "uint256"
        }
      ],
      "name": "mint",
      "outputs": [],
      "stateMutability": "payable",
      "type": "function"
    },
    {
      "inputs": [],
      "name": "mintOpen",
      "outputs": [
        {
          "internalType": "bool",
          "name": "",
          "type": "bool"
        }
      ],
      "stateMutability": "view",
      "type": "function"
    },
    {
      "inputs": [],
      "name": "mintPrice",
      "outputs": [
        {
          "internalType": "uint256",
          "name": "",
          "type": "uint256"
        }
      ],
      "stateMutability": "view",
      "type": "function"
    },
    {
      "inputs": [],
      "name": "name",
      "outputs": [
        {
          "internalType": "string",
          "name": "",
          "type": "string"
        }
      ],
      "stateMutability": "view",
      "type": "function"
    },
    {
      "inputs": [],
      "name": "owner",
      "outputs": [
        {
          "internalType": "address",
          "name": "",
          "type": "address"
        }
      ],
      "stateMutability": "view",
      "type": "function"
    },
    {
      "inputs": [
        {
          "internalType": "uint256",
          "name": "tokenId",
          "type": "uint256"
        }
      ],
      "name": "ownerOf",
      "outputs": [
        {
          "internalType": "address",
          "name": "",
          "type": "address"
        }
      ],
      "stateMutability": "view",
      "type": "function"
    },
    {
      "inputs": [],
      "name": "renounceOwnership",
      "outputs": [],
      "stateMutability": "nonpayable",
      "type": "function"
    },
    {
      "inputs": [
        {
          "internalType": "address",
          "name": "from",
          "type": "address"
        },
        {
          "internalType": "address",
          "name": "to",
          "type": "address"
        },
        {
          "internalType": "uint256",
          "name": "tokenId",
          "type": "uint256"
        }
      ],
      "name": "safeTransferFrom",
      "outputs": [],
      "stateMutability": "payable",
      "type": "function"
    },
    {
      "inputs": [
        {
          "internalType": "address",
          "name": "from",
          "type": "address"
        },
        {
          "internalType": "address",
          "name": "to",
          "type": "address"
        },
        {
          "internalType": "uint256",
          "name": "tokenId",
          "type": "uint256"
        },
        {
          "internalType": "bytes",
          "name": "_data",
          "type": "bytes"
        }
      ],
      "name": "safeTransferFrom",
      "outputs": [],
      "stateMutability": "payable",
      "type": "function"
    },
    {
      "inputs": [
        {
          "internalType": "address",
          "name": "operator",
          "type": "address"
        },
        {
          "internalType": "bool",
          "name": "approved",
          "type": "bool"
        }
      ],
      "name": "setApprovalForAll",
      "outputs": [],
      "stateMutability": "nonpayable",
      "type": "function"
    },
    {
      "inputs": [
        {
          "internalType": "bytes4",
          "name": "interfaceId",
          "type": "bytes4"
        }
      ],
      "name": "supportsInterface",
      "outputs": [
        {
          "internalType": "bool",
          "name": "",
          "type": "bool"
        }
      ],
      "stateMutability": "view",
      "type": "function"
    },
    {
      "inputs": [],
      "name": "symbol",
      "outputs": [
        {
          "internalType": "string",
          "name": "",
          "type": "string"
        }
      ],
      "stateMutability": "view",
      "type": "function"
    },
    {
      "inputs": [],
      "name": "toggleMintOpen",
      "outputs": [],
      "stateMutability": "nonpayable",
      "type": "function"
    },
    {
      "inputs": [
        {
          "internalType": "uint256",
          "name": "tokenId",
          "type": "uint256"
        }
      ],
      "name": "tokenURI",
      "outputs": [
        {
          "internalType": "string",
          "name": "",
          "type": "string"
        }
      ],
      "stateMutability": "view",
      "type": "function"
    },
    {
      "inputs": [],
      "name": "totalSupply",
      "outputs": [
        {
          "internalType": "uint256",
          "name": "",
          "type": "uint256"
        }
      ],
      "stateMutability": "view",
      "type": "function"
    },
    {
      "inputs": [
        {
          "internalType": "address",
          "name": "from",
          "type": "address"
        },
        {
          "internalType": "address",
          "name": "to",
          "type": "address"
        },
        {
          "internalType": "uint256",
          "name": "tokenId",
          "type": "uint256"
        }
      ],
      "name": "transferFrom",
      "outputs": [],
      "stateMutability": "payable",
      "type": "function"
    },
    {
      "inputs": [
        {
          "internalType": "address",
          "name": "newOwner",
          "type": "address"
        }
      ],
      "name": "transferOwnership",
      "outputs": [],
      "stateMutability": "nonpayable",
      "type": "function"
    },
    {
      "inputs": [
        {
          "internalType": "uint256",
          "name": "newPrice",
          "type": "uint256"
        }
      ],
      "name": "updatePrice",
      "outputs": [],
      "stateMutability": "nonpayable",
      "type": "function"
    }
  ],
  "bytecode": "0x60a0604052661550f7dca70000600955611a0d6080908152503480156200002557600080fd5b506040518060400160405280601981526020017f4e696768746d617265204f6e20457468657220537472656574000000000000008152506040518060400160405280600481526020017f4e4f4553000000000000000000000000000000000000000000000000000000008152508160029081620000a391906200045c565b508060039081620000b591906200045c565b50620000c66200010f60201b60201c565b6000819055505050620000ee620000e26200011460201b60201c565b6200011c60201b60201c565b6000600860146101000a81548160ff02191690831515021790555062000543565b600090565b600033905090565b6000600860009054906101000a900473ffffffffffffffffffffffffffffffffffffffff16905081600860006101000a81548173ffffffffffffffffffffffffffffffffffffffff021916908373ffffffffffffffffffffffffffffffffffffffff1602179055508173ffffffffffffffffffffffffffffffffffffffff168173ffffffffffffffffffffffffffffffffffffffff167f8be0079c531659141344cd1fd0a4f28419497f9722a3daafe3b4186f6b6457e060405160405180910390a35050565b600081519050919050565b7f4e487b7100000000000000000000000000000000000000000000000000000000600052604160045260246000fd5b7f4e487b7100000000000000000000000000000000000000000000000000000000600052602260045260246000fd5b600060028204905060018216806200026457607f821691505b6020821081036200027a57620002796200021c565b5b50919050565b60008190508160005260206000209050919050565b60006020601f8301049050919050565b600082821b905092915050565b600060088302620002e47fffffffffffffffffffffffffffffffffffffffffffffffffffffffffffffffff82620002a5565b620002f08683620002a5565b95508019841693508086168417925050509392505050565b6000819050919050565b6000819050919050565b60006200033d62000337620003318462000308565b62000312565b62000308565b9050919050565b6000819050919050565b62000359836200031c565b62000371620003688262000344565b848454620002b2565b825550505050565b600090565b6200038862000379565b620003958184846200034e565b505050565b5b81811015620003bd57620003b16000826200037e565b6001810190506200039b565b5050565b601f8211156200040c57620003d68162000280565b620003e18462000295565b81016020851015620003f1578190505b62000409620004008562000295565b8301826200039a565b50505b505050565b600082821c905092915050565b6000620004316000198460080262000411565b1980831691505092915050565b60006200044c83836200041e565b9150826002028217905092915050565b6200046782620001e2565b67ffffffffffffffff811115620004835762000482620001ed565b5b6200048f82546200024b565b6200049c828285620003c1565b600060209050601f831160018114620004d45760008415620004bf578287015190505b620004cb85826200043e565b8655506200053b565b601f198416620004e48662000280565b60005b828110156200050e57848901518255600182019150602085019450602081019050620004e7565b868310156200052e57848901516200052a601f8916826200041e565b8355505b6001600288020188555050505b505050505050565b6080516121fa6200056660003960008181610e2101526110b601526121fa6000f3fe6080604052600436106101405760003560e01c806370a08231116100b6578063a22cb4651161006f578063a22cb46514610402578063b88d4fde1461042b578063c87b56dd14610447578063d5abeb0114610484578063e985e9c5146104af578063f2fde38b146104ec57610140565b806370a0823114610313578063715018a6146103505780638d6cc56d146103675780638da5cb5b1461039057806395d89b41146103bb578063a0712d68146103e657610140565b806323b872dd1161010857806323b872dd1461023157806324bbd0491461024d57806342842e0e146102785780636352211e1461029457806367986daf146102d15780636817c76c146102e857610140565b806301ffc9a71461014557806306fdde0314610182578063081812fc146101ad578063095ea7b3146101ea57806318160ddd14610206575b600080fd5b34801561015157600080fd5b5061016c60048036038101906101679190611947565b610515565b604051610179919061198f565b60405180910390f35b34801561018e57600080fd5b506101976105a7565b6040516101a49190611a43565b60405180910390f35b3480156101b957600080fd5b506101d460048036038101906101cf9190611a9b565b610639565b6040516101e19190611b09565b60405180910390f35b61020460048036038101906101ff9190611b50565b6106b8565b005b34801561021257600080fd5b5061021b6107fc565b6040516102289190611b9f565b60405180910390f35b61024b60048036038101906102469190611bba565b610813565b005b34801561025957600080fd5b50610262610b35565b60405161026f919061198f565b60405180910390f35b610292600480360381019061028d9190611bba565b610b48565b005b3480156102a057600080fd5b506102bb60048036038101906102b69190611a9b565b610b68565b6040516102c89190611b09565b60405180910390f35b3480156102dd57600080fd5b506102e6610b7a565b005b3480156102f457600080fd5b506102fd610c39565b60405161030a9190611b9f565b60405180910390f35b34801561031f57600080fd5b5061033a60048036038101906103359190611c0d565b610c3f565b6040516103479190611b9f565b60405180910390f35b34801561035c57600080fd5b50610365610cf7565b005b34801561037357600080fd5b5061038e60048036038101906103899190611a9b565b610d0b565b005b34801561039c57600080fd5b506103a5610d1d565b6040516103b29190611b09565b60405180910390f35b3480156103c757600080fd5b506103d0610d47565b6040516103dd9190611a43565b60405180910390f35b61040060048036038101906103fb9190611a9b565b610dd9565b005b34801561040e57600080fd5b5061042960048036038101906104249190611c66565b610e98565b005b61044560048036038101906104409190611ddb565b610fa3565b005b34801561045357600080fd5b5061046e60048036038101906104699190611a9b565b611016565b60405161047b9190611a43565b60405180910390f35b34801561049057600080fd5b506104996110b4565b6040516104a69190611b9f565b60405180910390f35b3480156104bb57600080fd5b506104d660048036038101906104d19190611e5e565b6110d8565b6040516104e3919061198f565b60405180910390f35b3480156104f857600080fd5b50610513600480360381019061050e9190611c0d565b61116c565b005b60006301ffc9a760e01b827bffffffffffffffffffffffffffffffffffffffffffffffffffffffff1916148061057057506380ac58cd60e01b827bffffffffffffffffffffffffffffffffffffffffffffffffffffffff1916145b806105a05750635b5e139f60e01b827bffffffffffffffffffffffffffffffffffffffffffffffffffffffff1916145b9050919050565b6060600280546105b690611ecd565b80601f01602080910402602001604051908101604052809291908181526020018280546105e290611ecd565b801561062f5780601f106106045761010080835404028352916020019161062f565b820191906000526020600020905b81548152906001019060200180831161061257829003601f168201915b5050505050905090565b6000610644826111ef565b61067a576040517fcf4700e400000000000000000000000000000000000000000000000000000000815260040160405180910390fd5b6006600083815260200190815260200160002060000160009054906101000a900473ffffffffffffffffffffffffffffffffffffffff169050919050565b60006106c382610b68565b90508073ffffffffffffffffffffffffffffffffffffffff166106e461124e565b73ffffffffffffffffffffffffffffffffffffffff1614610747576107108161070b61124e565b6110d8565b610746576040517fcfb3b94200000000000000000000000000000000000000000000000000000000815260040160405180910390fd5b5b826006600084815260200190815260200160002060000160006101000a81548173ffffffffffffffffffffffffffffffffffffffff021916908373ffffffffffffffffffffffffffffffffffffffff160217905550818373ffffffffffffffffffffffffffffffffffffffff168273ffffffffffffffffffffffffffffffffffffffff167f8c5be1e5ebec7d5bd14f71427d1e84f3dd0314c0f7b2291e5b200ac8c7c3b92560405160405180910390a4505050565b6000610806611256565b6001546000540303905090565b600061081e8261125b565b90508373ffffffffffffffffffffffffffffffffffffffff168173ffffffffffffffffffffffffffffffffffffffff1614610885576040517fa114810000000000000000000000000000000000000000000000000000000000815260040160405180910390fd5b60008061089184611327565b915091506108a781876108a261124e565b61134e565b6108f3576108bc866108b761124e565b6110d8565b6108f2576040517f59c896be00000000000000000000000000000000000000000000000000000000815260040160405180910390fd5b5b600073ffffffffffffffffffffffffffffffffffffffff168573ffffffffffffffffffffffffffffffffffffffff1603610959576040517fea553b3400000000000000000000000000000000000000000000000000000000815260040160405180910390fd5b6109668686866001611392565b801561097157600082555b600560008773ffffffffffffffffffffffffffffffffffffffff1673ffffffffffffffffffffffffffffffffffffffff168152602001908152602001600020600081546001900391905081905550600560008673ffffffffffffffffffffffffffffffffffffffff1673ffffffffffffffffffffffffffffffffffffffff1681526020019081526020016000206000815460010191905081905550610a3f85610a1b888887611398565b7c0200000000000000000000000000000000000000000000000000000000176113c0565b600460008681526020019081526020016000208190555060007c0200000000000000000000000000000000000000000000000000000000841603610ac55760006001850190506000600460008381526020019081526020016000205403610ac3576000548114610ac2578360046000838152602001908152602001600020819055505b5b505b838573ffffffffffffffffffffffffffffffffffffffff168773ffffffffffffffffffffffffffffffffffffffff167fddf252ad1be2c89b69c2b068fc378daa952ba7f163c4a11628f55a4df523b3ef60405160405180910390a4610b2d86868660016113eb565b505050505050565b600860149054906101000a900460ff1681565b610b6383838360405180602001604052806000815250610fa3565b505050565b6000610b738261125b565b9050919050565b610b826113f1565b600860149054906101000a900460ff1615610bd4577f715313ec2dda499b3a5e457c9efc668e5267f2e046178cff3f4d8e2b4d2757f56001604051610bc7919061198f565b60405180910390a1610c0d565b7f715313ec2dda499b3a5e457c9efc668e5267f2e046178cff3f4d8e2b4d2757f56000604051610c04919061198f565b60405180910390a15b600860149054906101000a900460ff1615600860146101000a81548160ff021916908315150217905550565b60095481565b60008073ffffffffffffffffffffffffffffffffffffffff168273ffffffffffffffffffffffffffffffffffffffff1603610ca6576040517f8f4eb60400000000000000000000000000000000000000000000000000000000815260040160405180910390fd5b67ffffffffffffffff600560008473ffffffffffffffffffffffffffffffffffffffff1673ffffffffffffffffffffffffffffffffffffffff16815260200190815260200160002054169050919050565b610cff6113f1565b610d09600061146f565b565b610d136113f1565b8060098190555050565b6000600860009054906101000a900473ffffffffffffffffffffffffffffffffffffffff16905090565b606060038054610d5690611ecd565b80601f0160208091040260200160405190810160405280929190818152602001828054610d8290611ecd565b8015610dcf5780601f10610da457610100808354040283529160200191610dcf565b820191906000526020600020905b815481529060010190602001808311610db257829003601f168201915b5050505050905090565b600860149054906101000a900460ff16610e1f576040517fa7e4d9bd00000000000000000000000000000000000000000000000000000000815260040160405180910390fd5b7f000000000000000000000000000000000000000000000000000000000000000081610e49611535565b610e539190611f2d565b1115610e8b576040517f846fb9e200000000000000000000000000000000000000000000000000000000815260040160405180910390fd5b610e953382611548565b50565b8060076000610ea561124e565b73ffffffffffffffffffffffffffffffffffffffff1673ffffffffffffffffffffffffffffffffffffffff16815260200190815260200160002060008473ffffffffffffffffffffffffffffffffffffffff1673ffffffffffffffffffffffffffffffffffffffff16815260200190815260200160002060006101000a81548160ff0219169083151502179055508173ffffffffffffffffffffffffffffffffffffffff16610f5261124e565b73ffffffffffffffffffffffffffffffffffffffff167f17307eab39ab6107e8899845ad3d59bd9653f200f220920489ca2b5937696c3183604051610f97919061198f565b60405180910390a35050565b610fae848484610813565b60008373ffffffffffffffffffffffffffffffffffffffff163b1461101057610fd984848484611703565b61100f576040517fd1a57ed600000000000000000000000000000000000000000000000000000000815260040160405180910390fd5b5b50505050565b6060611021826111ef565b611057576040517fa14c4b5000000000000000000000000000000000000000000000000000000000815260040160405180910390fd5b6000611061611853565b9050600081510361108157604051806020016040528060008152506110ac565b8061108b8461186a565b60405160200161109c929190611fbf565b6040516020818303038152906040525b915050919050565b7f000000000000000000000000000000000000000000000000000000000000000081565b6000600760008473ffffffffffffffffffffffffffffffffffffffff1673ffffffffffffffffffffffffffffffffffffffff16815260200190815260200160002060008373ffffffffffffffffffffffffffffffffffffffff1673ffffffffffffffffffffffffffffffffffffffff16815260200190815260200160002060009054906101000a900460ff16905092915050565b6111746113f1565b600073ffffffffffffffffffffffffffffffffffffffff168173ffffffffffffffffffffffffffffffffffffffff16036111e3576040517f08c379a00000000000000000000000000000000000000000000000000000000081526004016111da90612055565b60405180910390fd5b6111ec8161146f565b50565b6000816111fa611256565b11158015611209575060005482105b8015611247575060007c0100000000000000000000000000000000000000000000000000000000600460008581526020019081526020016000205416145b9050919050565b600033905090565b600090565b6000808290508061126a611256565b116112f0576000548110156112ef5760006004600083815260200190815260200160002054905060007c01000000000000000000000000000000000000000000000000000000008216036112ed575b600081036112e35760046000836001900393508381526020019081526020016000205490506112b9565b8092505050611322565b505b5b6040517fdf2d9b4200000000000000000000000000000000000000000000000000000000815260040160405180910390fd5b919050565b60008060006006600085815260200190815260200160002090508092508254915050915091565b600073ffffffffffffffffffffffffffffffffffffffff8316925073ffffffffffffffffffffffffffffffffffffffff821691508382148383141790509392505050565b50505050565b60008060e883901c905060e86113af8686846118ba565b62ffffff16901b9150509392505050565b600073ffffffffffffffffffffffffffffffffffffffff83169250814260a01b178317905092915050565b50505050565b6113f96118c3565b73ffffffffffffffffffffffffffffffffffffffff16611417610d1d565b73ffffffffffffffffffffffffffffffffffffffff161461146d576040517f08c379a0000000000000000000000000000000000000000000000000000000008152600401611464906120c1565b60405180910390fd5b565b6000600860009054906101000a900473ffffffffffffffffffffffffffffffffffffffff16905081600860006101000a81548173ffffffffffffffffffffffffffffffffffffffff021916908373ffffffffffffffffffffffffffffffffffffffff1602179055508173ffffffffffffffffffffffffffffffffffffffff168173ffffffffffffffffffffffffffffffffffffffff167f8be0079c531659141344cd1fd0a4f28419497f9722a3daafe3b4186f6b6457e060405160405180910390a35050565b600061153f611256565b60005403905090565b60008054905060008203611588576040517fb562e8dd00000000000000000000000000000000000000000000000000000000815260040160405180910390fd5b6115956000848385611392565b600160406001901b178202600560008573ffffffffffffffffffffffffffffffffffffffff1673ffffffffffffffffffffffffffffffffffffffff1681526020019081526020016000206000828254019250508190555061160c836115fd6000866000611398565b611606856118cb565b176113c0565b6004600083815260200190815260200160002081905550600080838301905073ffffffffffffffffffffffffffffffffffffffff85169150828260007fddf252ad1be2c89b69c2b068fc378daa952ba7f163c4a11628f55a4df523b3ef600080a4600183015b8181146116ad57808360007fddf252ad1be2c89b69c2b068fc378daa952ba7f163c4a11628f55a4df523b3ef600080a4600181019050611672565b50600082036116e8576040517f2e07630000000000000000000000000000000000000000000000000000000000815260040160405180910390fd5b8060008190555050506116fe60008483856113eb565b505050565b60008373ffffffffffffffffffffffffffffffffffffffff1663150b7a0261172961124e565b8786866040518563ffffffff1660e01b815260040161174b9493929190612136565b6020604051808303816000875af192505050801561178757506040513d601f19601f820116820180604052508101906117849190612197565b60015b611800573d80600081146117b7576040519150601f19603f3d011682016040523d82523d6000602084013e6117bc565b606091505b5060008151036117f8576040517fd1a57ed600000000000000000000000000000000000000000000000000000000815260040160405180910390fd5b805181602001fd5b63150b7a0260e01b7bffffffffffffffffffffffffffffffffffffffffffffffffffffffff1916817bffffffffffffffffffffffffffffffffffffffffffffffffffffffff191614915050949350505050565b606060405180602001604052806000815250905090565b606060a060405101806040526020810391506000825281835b6001156118a557600184039350600a81066030018453600a8104905080611883575b50828103602084039350808452505050919050565b60009392505050565b600033905090565b60006001821460e11b9050919050565b6000604051905090565b600080fd5b600080fd5b60007fffffffff0000000000000000000000000000000000000000000000000000000082169050919050565b611924816118ef565b811461192f57600080fd5b50565b6000813590506119418161191b565b92915050565b60006020828403121561195d5761195c6118e5565b5b600061196b84828501611932565b91505092915050565b60008115159050919050565b61198981611974565b82525050565b60006020820190506119a46000830184611980565b92915050565b600081519050919050565b600082825260208201905092915050565b60005b838110156119e45780820151818401526020810190506119c9565b838111156119f3576000848401525b50505050565b6000601f19601f8301169050919050565b6000611a15826119aa565b611a1f81856119b5565b9350611a2f8185602086016119c6565b611a38816119f9565b840191505092915050565b60006020820190508181036000830152611a5d8184611a0a565b905092915050565b6000819050919050565b611a7881611a65565b8114611a8357600080fd5b50565b600081359050611a9581611a6f565b92915050565b600060208284031215611ab157611ab06118e5565b5b6000611abf84828501611a86565b91505092915050565b600073ffffffffffffffffffffffffffffffffffffffff82169050919050565b6000611af382611ac8565b9050919050565b611b0381611ae8565b82525050565b6000602082019050611b1e6000830184611afa565b92915050565b611b2d81611ae8565b8114611b3857600080fd5b50565b600081359050611b4a81611b24565b92915050565b60008060408385031215611b6757611b666118e5565b5b6000611b7585828601611b3b565b9250506020611b8685828601611a86565b9150509250929050565b611b9981611a65565b82525050565b6000602082019050611bb46000830184611b90565b92915050565b600080600060608486031215611bd357611bd26118e5565b5b6000611be186828701611b3b565b9350506020611bf286828701611b3b565b9250506040611c0386828701611a86565b9150509250925092565b600060208284031215611c2357611c226118e5565b5b6000611c3184828501611b3b565b91505092915050565b611c4381611974565b8114611c4e57600080fd5b50565b600081359050611c6081611c3a565b92915050565b60008060408385031215611c7d57611c7c6118e5565b5b6000611c8b85828601611b3b565b9250506020611c9c85828601611c51565b9150509250929050565b600080fd5b600080fd5b7f4e487b7100000000000000000000000000000000000000000000000000000000600052604160045260246000fd5b611ce8826119f9565b810181811067ffffffffffffffff82111715611d0757611d06611cb0565b5b80604052505050565b6000611d1a6118db565b9050611d268282611cdf565b919050565b600067ffffffffffffffff821115611d4657611d45611cb0565b5b611d4f826119f9565b9050602081019050919050565b82818337600083830152505050565b6000611d7e611d7984611d2b565b611d10565b905082815260208101848484011115611d9a57611d99611cab565b5b611da5848285611d5c565b509392505050565b600082601f830112611dc257611dc1611ca6565b5b8135611dd2848260208601611d6b565b91505092915050565b60008060008060808587031215611df557611df46118e5565b5b6000611e0387828801611b3b565b9450506020611e1487828801611b3b565b9350506040611e2587828801611a86565b925050606085013567ffffffffffffffff811115611e4657611e456118ea565b5b611e5287828801611dad565b91505092959194509250565b60008060408385031215611e7557611e746118e5565b5b6000611e8385828601611b3b565b9250506020611e9485828601611b3b565b9150509250929050565b7f4e487b7100000000000000000000000000000000000000000000000000000000600052602260045260246000fd5b60006002820490506001821680611ee557607f821691505b602082108103611ef857611ef7611e9e565b5b50919050565b7f4e487b7100000000000000000000000000000000000000000000000000000000600052601160045260246000fd5b6000611f3882611a65565b9150611f4383611a65565b9250827fffffffffffffffffffffffffffffffffffffffffffffffffffffffffffffffff03821115611f7857611f77611efe565b5b828201905092915050565b600081905092915050565b6000611f99826119aa565b611fa38185611f83565b9350611fb38185602086016119c6565b80840191505092915050565b6000611fcb8285611f8e565b9150611fd78284611f8e565b91508190509392505050565b7f4f776e61626c653a206e6577206f776e657220697320746865207a65726f206160008201527f6464726573730000000000000000000000000000000000000000000000000000602082015250565b600061203f6026836119b5565b915061204a82611fe3565b604082019050919050565b6000602082019050818103600083015261206e81612032565b9050919050565b7f4f776e61626c653a2063616c6c6572206973206e6f7420746865206f776e6572600082015250565b60006120ab6020836119b5565b91506120b682612075565b602082019050919050565b600060208201905081810360008301526120da8161209e565b9050919050565b600081519050919050565b600082825260208201905092915050565b6000612108826120e1565b61211281856120ec565b93506121228185602086016119c6565b61212b816119f9565b840191505092915050565b600060808201905061214b6000830187611afa565b6121586020830186611afa565b6121656040830185611b90565b818103606083015261217781846120fd565b905095945050505050565b6000815190506121918161191b565b92915050565b6000602082840312156121ad576121ac6118e5565b5b60006121bb84828501612182565b9150509291505056fea264697066735822122060d1adff81bf221d053a538eb614e90af830659f91d9110e4d8f95b721be0e7f64736f6c634300080f0033",
  "linkReferences": {},
  "deployedLinkReferences": {}
}